{
  "contractName": "LeadStake",
  "abi": [
    {
      "inputs": [
        {
          "internalType": "address",
          "name": "_token",
          "type": "address"
        },
        {
          "internalType": "uint8",
          "name": "_stakingTaxRate",
          "type": "uint8"
        },
        {
          "internalType": "uint8",
          "name": "_unstakingTaxRate",
          "type": "uint8"
        },
        {
          "internalType": "uint8",
          "name": "_weeklyROI",
          "type": "uint8"
        },
        {
          "internalType": "uint256",
          "name": "_registrationTax",
          "type": "uint256"
        },
        {
          "internalType": "uint256",
          "name": "_referralTaxAllocation",
          "type": "uint256"
        },
        {
          "internalType": "uint256",
          "name": "_minimumStakeValue",
          "type": "uint256"
        }
      ],
      "stateMutability": "nonpayable",
      "type": "constructor"
    },
    {
      "anonymous": false,
      "inputs": [
        {
          "indexed": false,
          "internalType": "address",
          "name": "sender",
          "type": "address"
        },
        {
          "indexed": false,
          "internalType": "uint256",
          "name": "amount",
          "type": "uint256"
        },
        {
          "indexed": false,
          "internalType": "uint256",
          "name": "time",
          "type": "uint256"
        }
      ],
      "name": "OnDeposit",
      "type": "event"
    },
    {
      "anonymous": false,
      "inputs": [
        {
          "indexed": false,
          "internalType": "address",
          "name": "stakeholder",
          "type": "address"
        },
        {
          "indexed": false,
          "internalType": "uint256",
          "name": "amount",
          "type": "uint256"
        },
        {
          "indexed": false,
          "internalType": "uint256",
          "name": "totalTax",
          "type": "uint256"
        },
        {
          "indexed": false,
          "internalType": "address",
          "name": "_referrer",
          "type": "address"
        }
      ],
      "name": "OnRegisterAndStake",
      "type": "event"
    },
    {
      "anonymous": false,
      "inputs": [
        {
          "indexed": false,
          "internalType": "address",
          "name": "sender",
          "type": "address"
        },
        {
          "indexed": false,
          "internalType": "uint256",
          "name": "amount",
          "type": "uint256"
        },
        {
          "indexed": false,
          "internalType": "uint256",
          "name": "tax",
          "type": "uint256"
        }
      ],
      "name": "OnStake",
      "type": "event"
    },
    {
      "anonymous": false,
      "inputs": [
        {
          "indexed": false,
          "internalType": "address",
          "name": "sender",
          "type": "address"
        },
        {
          "indexed": false,
          "internalType": "uint256",
          "name": "amount",
          "type": "uint256"
        },
        {
          "indexed": false,
          "internalType": "uint256",
          "name": "tax",
          "type": "uint256"
        }
      ],
      "name": "OnUnstake",
      "type": "event"
    },
    {
      "anonymous": false,
      "inputs": [
        {
          "indexed": false,
          "internalType": "address",
          "name": "sender",
          "type": "address"
        },
        {
          "indexed": false,
          "internalType": "uint256",
          "name": "amount",
          "type": "uint256"
        }
      ],
      "name": "OnWithdrawal",
      "type": "event"
    },
    {
      "anonymous": false,
      "inputs": [
        {
          "indexed": true,
          "internalType": "address",
          "name": "previousOwner",
          "type": "address"
        },
        {
          "indexed": true,
          "internalType": "address",
          "name": "newOwner",
          "type": "address"
        }
      ],
      "name": "OwnershipTransferred",
      "type": "event"
    },
    {
      "inputs": [
        {
          "internalType": "address",
          "name": "",
          "type": "address"
        }
      ],
      "name": "lastClock",
      "outputs": [
        {
          "internalType": "uint256",
          "name": "",
          "type": "uint256"
        }
      ],
      "stateMutability": "view",
      "type": "function",
      "constant": true
    },
    {
      "inputs": [],
      "name": "lead",
      "outputs": [
        {
          "internalType": "address",
          "name": "",
          "type": "address"
        }
      ],
      "stateMutability": "view",
      "type": "function",
      "constant": true
    },
    {
      "inputs": [],
      "name": "minimumStakeValue",
      "outputs": [
        {
          "internalType": "uint256",
          "name": "",
          "type": "uint256"
        }
      ],
      "stateMutability": "view",
      "type": "function",
      "constant": true
    },
    {
      "inputs": [],
      "name": "owner",
      "outputs": [
        {
          "internalType": "address",
          "name": "",
          "type": "address"
        }
      ],
      "stateMutability": "view",
      "type": "function",
      "constant": true
    },
    {
      "inputs": [
        {
          "internalType": "address",
          "name": "",
          "type": "address"
        }
      ],
      "name": "referralCount",
      "outputs": [
        {
          "internalType": "uint256",
          "name": "",
          "type": "uint256"
        }
      ],
      "stateMutability": "view",
      "type": "function",
      "constant": true
    },
    {
      "inputs": [
        {
          "internalType": "address",
          "name": "",
          "type": "address"
        }
      ],
      "name": "referralRewards",
      "outputs": [
        {
          "internalType": "uint256",
          "name": "",
          "type": "uint256"
        }
      ],
      "stateMutability": "view",
      "type": "function",
      "constant": true
    },
    {
      "inputs": [],
      "name": "referralTaxAllocation",
      "outputs": [
        {
          "internalType": "uint256",
          "name": "",
          "type": "uint256"
        }
      ],
      "stateMutability": "view",
      "type": "function",
      "constant": true
    },
    {
      "inputs": [
        {
          "internalType": "address",
          "name": "",
          "type": "address"
        }
      ],
      "name": "registered",
      "outputs": [
        {
          "internalType": "bool",
          "name": "",
          "type": "bool"
        }
      ],
      "stateMutability": "view",
      "type": "function",
      "constant": true
    },
    {
      "inputs": [],
      "name": "registrationTax",
      "outputs": [
        {
          "internalType": "uint256",
          "name": "",
          "type": "uint256"
        }
      ],
      "stateMutability": "view",
      "type": "function",
      "constant": true
    },
    {
      "inputs": [],
      "name": "renounceOwnership",
      "outputs": [],
      "stateMutability": "nonpayable",
      "type": "function"
    },
    {
      "inputs": [
        {
          "internalType": "address",
          "name": "",
          "type": "address"
        }
      ],
      "name": "stakeRewards",
      "outputs": [
        {
          "internalType": "uint256",
          "name": "",
          "type": "uint256"
        }
      ],
      "stateMutability": "view",
      "type": "function",
      "constant": true
    },
    {
      "inputs": [
        {
          "internalType": "uint256",
          "name": "",
          "type": "uint256"
        }
      ],
      "name": "stakeholders",
      "outputs": [
        {
          "internalType": "address",
          "name": "",
          "type": "address"
        }
      ],
      "stateMutability": "view",
      "type": "function",
      "constant": true
    },
    {
      "inputs": [
        {
          "internalType": "address",
          "name": "",
          "type": "address"
        }
      ],
      "name": "stakes",
      "outputs": [
        {
          "internalType": "uint256",
          "name": "",
          "type": "uint256"
        }
      ],
      "stateMutability": "view",
      "type": "function",
      "constant": true
    },
    {
      "inputs": [],
      "name": "stakingTaxRate",
      "outputs": [
        {
          "internalType": "uint256",
          "name": "",
          "type": "uint256"
        }
      ],
      "stateMutability": "view",
      "type": "function",
      "constant": true
    },
    {
      "inputs": [],
      "name": "totalDistributed",
      "outputs": [
        {
          "internalType": "uint256",
          "name": "",
          "type": "uint256"
        }
      ],
      "stateMutability": "view",
      "type": "function",
      "constant": true
    },
    {
      "inputs": [],
      "name": "totalStaked",
      "outputs": [
        {
          "internalType": "uint256",
          "name": "",
          "type": "uint256"
        }
      ],
      "stateMutability": "view",
      "type": "function",
      "constant": true
    },
    {
      "inputs": [
        {
          "internalType": "address",
          "name": "newOwner",
          "type": "address"
        }
      ],
      "name": "transferOwnership",
      "outputs": [],
      "stateMutability": "nonpayable",
      "type": "function"
    },
    {
      "inputs": [],
      "name": "unstakingTaxRate",
      "outputs": [
        {
          "internalType": "uint256",
          "name": "",
          "type": "uint256"
        }
      ],
      "stateMutability": "view",
      "type": "function",
      "constant": true
    },
    {
      "inputs": [],
      "name": "weeklyROI",
      "outputs": [
        {
          "internalType": "uint8",
          "name": "",
          "type": "uint8"
        }
      ],
      "stateMutability": "view",
      "type": "function",
      "constant": true
    },
    {
      "inputs": [
        {
          "internalType": "uint256",
          "name": "_amount",
          "type": "uint256"
        },
        {
          "internalType": "address",
          "name": "_referrer",
          "type": "address"
        }
      ],
      "name": "registerAndStake",
      "outputs": [],
      "stateMutability": "nonpayable",
      "type": "function"
    },
    {
      "inputs": [
        {
          "internalType": "address",
          "name": "_stakeholder",
          "type": "address"
        }
      ],
      "name": "calculateEarnings",
      "outputs": [
        {
          "internalType": "uint256",
          "name": "",
          "type": "uint256"
        }
      ],
      "stateMutability": "view",
      "type": "function",
      "constant": true
    },
    {
      "inputs": [
        {
          "internalType": "uint256",
          "name": "_amount",
          "type": "uint256"
        }
      ],
      "name": "stake",
      "outputs": [],
      "stateMutability": "nonpayable",
      "type": "function"
    },
    {
      "inputs": [
        {
          "internalType": "uint256",
          "name": "_amount",
          "type": "uint256"
        }
      ],
      "name": "unstake",
      "outputs": [],
      "stateMutability": "nonpayable",
      "type": "function"
    },
    {
      "inputs": [
        {
          "internalType": "address",
          "name": "_address",
          "type": "address"
        }
      ],
      "name": "isStakeholder",
      "outputs": [
        {
          "internalType": "bool",
          "name": "",
          "type": "bool"
        },
        {
          "internalType": "uint256",
          "name": "",
          "type": "uint256"
        }
      ],
      "stateMutability": "view",
      "type": "function",
      "constant": true
    },
    {
      "inputs": [],
      "name": "withdrawEarnings",
      "outputs": [],
      "stateMutability": "nonpayable",
      "type": "function"
    },
    {
      "inputs": [
        {
          "internalType": "uint8",
          "name": "_stakingTaxRate",
          "type": "uint8"
        }
      ],
      "name": "setStakingTaxRate",
      "outputs": [],
      "stateMutability": "nonpayable",
      "type": "function"
    },
    {
      "inputs": [
        {
          "internalType": "uint8",
          "name": "_unstakingTaxRate",
          "type": "uint8"
        }
      ],
      "name": "setUnstakingTaxRate",
      "outputs": [],
      "stateMutability": "nonpayable",
      "type": "function"
    },
    {
      "inputs": [
        {
          "internalType": "uint8",
          "name": "_weeklyROI",
          "type": "uint8"
        }
      ],
      "name": "setweeklyROI",
      "outputs": [],
      "stateMutability": "nonpayable",
      "type": "function"
    },
    {
      "inputs": [
        {
          "internalType": "uint256",
          "name": "_registrationTax",
          "type": "uint256"
        }
      ],
      "name": "setRegistrationTax",
      "outputs": [],
      "stateMutability": "nonpayable",
      "type": "function"
    },
    {
      "inputs": [
        {
          "internalType": "uint256",
          "name": "_referralTaxAllocation",
          "type": "uint256"
        }
      ],
      "name": "setReferralTaxAllocation",
      "outputs": [],
      "stateMutability": "nonpayable",
      "type": "function"
    },
    {
      "inputs": [
        {
          "internalType": "uint256",
          "name": "_minimumStakeValue",
          "type": "uint256"
        }
      ],
      "name": "setMinimumStakeValue",
      "outputs": [],
      "stateMutability": "nonpayable",
      "type": "function"
    },
    {
      "inputs": [],
      "name": "supplyPool",
      "outputs": [],
      "stateMutability": "nonpayable",
      "type": "function"
    },
    {
      "inputs": [
        {
          "internalType": "address",
          "name": "_address",
          "type": "address"
        },
        {
          "internalType": "uint256",
          "name": "_amount",
          "type": "uint256"
        }
      ],
      "name": "withdraw",
      "outputs": [],
      "stateMutability": "nonpayable",
      "type": "function"
    }
  ],
  "bytecode": "0x60806040523480156200001157600080fd5b50604051620042aa380380620042aa833981810160405260e08110156200003757600080fd5b8101908080519060200190929190805190602001909291908051906020019092919080519060200190929190805190602001909291908051906020019092919080519060200190929190505050600062000096620001c660201b60201c565b9050806000806101000a81548173ffffffffffffffffffffffffffffffffffffffff021916908373ffffffffffffffffffffffffffffffffffffffff1602179055508073ffffffffffffffffffffffffffffffffffffffff16600073ffffffffffffffffffffffffffffffffffffffff167f8be0079c531659141344cd1fd0a4f28419497f9722a3daafe3b4186f6b6457e060405160405180910390a35086600160006101000a81548173ffffffffffffffffffffffffffffffffffffffff021916908373ffffffffffffffffffffffffffffffffffffffff1602179055508560ff166003819055508460ff1660078190555083600560006101000a81548160ff021916908360ff16021790555082600481905550816009819055508060088190555050505050505050620001ce565b600033905090565b6140cc80620001de6000396000f3fe608060405234801561001057600080fd5b50600436106101fb5760003560e01c8063817b1cd21161011a578063db74559b116100ad578063efca2eed1161007c578063efca2eed146107d9578063f24ee7d3146107f7578063f2fde38b14610845578063f3fef3a314610889578063fbfaa24d146108d7576101fb565b8063db74559b146106aa578063e0de0c6814610702578063ef037b901461075a578063efad16a8146107bb576101fb565b8063b60dbb5b116100e9578063b60dbb5b146105e9578063b73c6ce914610617578063c428e11414610621578063cc62db5b14610679576101fb565b8063817b1cd21461050f5780638da5cb5b1461052d578063a694fc3a14610561578063b2dd5c071461058f576101fb565b806346bb0a16116101925780636ed11151116101615780636ed111511461045e57806370f0f3871461048f578063715018a6146104ad578063789c1d3a146104b7576101fb565b806346bb0a16146103835780634be4d790146103b757806353aaa63b146103e55780636c8bf93b1461043d576101fb565b806318e1fbfc116101ce57806318e1fbfc146102ae5780631d6b8b72146102cc578063269e3e3a146103245780632e17de7814610355576101fb565b806301c11d2c14610200578063066936041461020a5780630aca582e1461023857806316934fc414610256575b600080fd5b6102086108f5565b005b6102366004803603602081101561022057600080fd5b8101908080359060200190929190505050611036565b005b610240611108565b6040518082815260200191505060405180910390f35b6102986004803603602081101561026c57600080fd5b81019080803573ffffffffffffffffffffffffffffffffffffffff16906020019092919050505061110e565b6040518082815260200191505060405180910390f35b6102b6611126565b6040518082815260200191505060405180910390f35b6102f8600480360360208110156102e257600080fd5b810190808035906020019092919050505061112c565b604051808273ffffffffffffffffffffffffffffffffffffffff16815260200191505060405180910390f35b6103536004803603602081101561033a57600080fd5b81019080803560ff169060200190929190505050611168565b005b6103816004803603602081101561036b57600080fd5b810190808035906020019092919050505061123d565b005b61038b6118cd565b604051808273ffffffffffffffffffffffffffffffffffffffff16815260200191505060405180910390f35b6103e3600480360360208110156103cd57600080fd5b81019080803590602001909291905050506118f3565b005b610427600480360360208110156103fb57600080fd5b81019080803573ffffffffffffffffffffffffffffffffffffffff1690602001909291905050506119c5565b6040518082815260200191505060405180910390f35b6104456119dd565b604051808260ff16815260200191505060405180910390f35b61048d6004803603602081101561047457600080fd5b81019080803560ff1690602001909291905050506119f0565b005b610497611cb1565b6040518082815260200191505060405180910390f35b6104b5611cb7565b005b6104f9600480360360208110156104cd57600080fd5b81019080803573ffffffffffffffffffffffffffffffffffffffff169060200190929190505050611e3d565b6040518082815260200191505060405180910390f35b610517611e55565b6040518082815260200191505060405180910390f35b610535611e5b565b604051808273ffffffffffffffffffffffffffffffffffffffff16815260200191505060405180910390f35b61058d6004803603602081101561057757600080fd5b8101908080359060200190929190505050611e84565b005b6105d1600480360360208110156105a557600080fd5b81019080803573ffffffffffffffffffffffffffffffffffffffff169060200190929190505050612502565b60405180821515815260200191505060405180910390f35b610615600480360360208110156105ff57600080fd5b8101908080359060200190929190505050612522565b005b61061f6125f4565b005b6106636004803603602081101561063757600080fd5b81019080803573ffffffffffffffffffffffffffffffffffffffff169060200190929190505050612ae3565b6040518082815260200191505060405180910390f35b6106a86004803603602081101561068f57600080fd5b81019080803560ff169060200190929190505050612afb565b005b6106ec600480360360208110156106c057600080fd5b81019080803573ffffffffffffffffffffffffffffffffffffffff169060200190929190505050612bd0565b6040518082815260200191505060405180910390f35b6107446004803603602081101561071857600080fd5b81019080803573ffffffffffffffffffffffffffffffffffffffff169060200190929190505050612be8565b6040518082815260200191505060405180910390f35b61079c6004803603602081101561077057600080fd5b81019080803573ffffffffffffffffffffffffffffffffffffffff169060200190929190505050612ce5565b6040518083151581526020018281526020019250505060405180910390f35b6107c3612d89565b6040518082815260200191505060405180910390f35b6107e1612d8f565b6040518082815260200191505060405180910390f35b6108436004803603604081101561080d57600080fd5b8101908080359060200190929190803573ffffffffffffffffffffffffffffffffffffffff169060200190929190505050612d95565b005b6108876004803603602081101561085b57600080fd5b81019080803573ffffffffffffffffffffffffffffffffffffffff1690602001909291905050506135be565b005b6108d56004803603604081101561089f57600080fd5b81019080803573ffffffffffffffffffffffffffffffffffffffff169060200190929190803590602001909291905050506137c9565b005b6108df613ad5565b6040518082815260200191505060405180910390f35b6108fd613adb565b73ffffffffffffffffffffffffffffffffffffffff1660008054906101000a900473ffffffffffffffffffffffffffffffffffffffff1673ffffffffffffffffffffffffffffffffffffffff16146109bd576040517f08c379a00000000000000000000000000000000000000000000000000000000081526004018080602001828103825260208152602001807f4f776e61626c653a2063616c6c6572206973206e6f7420746865206f776e657281525060200191505060405180910390fd5b600080600090505b600a80549050811015610bb957610baa610a15600a83815481106109e557fe5b9060005260206000200160009054906101000a900473ffffffffffffffffffffffffffffffffffffffff16612be8565b610b9c600b6000600a8681548110610a2957fe5b9060005260206000200160009054906101000a900473ffffffffffffffffffffffffffffffffffffffff1673ffffffffffffffffffffffffffffffffffffffff1673ffffffffffffffffffffffffffffffffffffffff16815260200190815260200160002054610b8e600e6000600a8881548110610aa357fe5b9060005260206000200160009054906101000a900473ffffffffffffffffffffffffffffffffffffffff1673ffffffffffffffffffffffffffffffffffffffff1673ffffffffffffffffffffffffffffffffffffffff16815260200190815260200160002054600c6000600a8981548110610b1a57fe5b9060005260206000200160009054906101000a900473ffffffffffffffffffffffffffffffffffffffff1673ffffffffffffffffffffffffffffffffffffffff1673ffffffffffffffffffffffffffffffffffffffff16815260200190815260200160002054613ae390919063ffffffff16565b613ae390919063ffffffff16565b613ae390919063ffffffff16565b915080806001019150506109c5565b506000610c92600160009054906101000a900473ffffffffffffffffffffffffffffffffffffffff1673ffffffffffffffffffffffffffffffffffffffff166370a08231306040518263ffffffff1660e01b8152600401808273ffffffffffffffffffffffffffffffffffffffff16815260200191505060206040518083038186803b158015610c4857600080fd5b505afa158015610c5c573d6000803e3d6000fd5b505050506040513d6020811015610c7257600080fd5b810190808051906020019092919050505083613b6b90919063ffffffff16565b9050600160009054906101000a900473ffffffffffffffffffffffffffffffffffffffff1673ffffffffffffffffffffffffffffffffffffffff166370a08231306040518263ffffffff1660e01b8152600401808273ffffffffffffffffffffffffffffffffffffffff16815260200191505060206040518083038186803b158015610d1d57600080fd5b505afa158015610d31573d6000803e3d6000fd5b505050506040513d6020811015610d4757600080fd5b81019080805190602001909291905050508211610dcc576040517f08c379a000000000000000000000000000000000000000000000000000000000815260040180806020018281038252601e8152602001807f5374696c6c206861766520656e6f75676820706f6f6c2072657365727665000081525060200191505060405180910390fd5b80600160009054906101000a900473ffffffffffffffffffffffffffffffffffffffff1673ffffffffffffffffffffffffffffffffffffffff166370a08231336040518263ffffffff1660e01b8152600401808273ffffffffffffffffffffffffffffffffffffffff16815260200191505060206040518083038186803b158015610e5657600080fd5b505afa158015610e6a573d6000803e3d6000fd5b505050506040513d6020811015610e8057600080fd5b81019080805190602001909291905050501015610ee8576040517f08c379a000000000000000000000000000000000000000000000000000000000815260040180806020018281038252602981526020018061401f6029913960400191505060405180910390fd5b600160009054906101000a900473ffffffffffffffffffffffffffffffffffffffff1673ffffffffffffffffffffffffffffffffffffffff166323b872dd3330846040518463ffffffff1660e01b8152600401808473ffffffffffffffffffffffffffffffffffffffff1681526020018373ffffffffffffffffffffffffffffffffffffffff1681526020018281526020019350505050602060405180830381600087803b158015610f9957600080fd5b505af1158015610fad573d6000803e3d6000fd5b505050506040513d6020811015610fc357600080fd5b8101908080519060200190929190505050507f4988b6b5c28044f2eb6386f504468e02344c07872faa4440e79284d63aba0bee338242604051808473ffffffffffffffffffffffffffffffffffffffff168152602001838152602001828152602001935050505060405180910390a15050565b61103e613adb565b73ffffffffffffffffffffffffffffffffffffffff1660008054906101000a900473ffffffffffffffffffffffffffffffffffffffff1673ffffffffffffffffffffffffffffffffffffffff16146110fe576040517f08c379a00000000000000000000000000000000000000000000000000000000081526004018080602001828103825260208152602001807f4f776e61626c653a2063616c6c6572206973206e6f7420746865206f776e657281525060200191505060405180910390fd5b8060048190555050565b60045481565b600b6020528060005260406000206000915090505481565b60085481565b600a818154811061113957fe5b906000526020600020016000915054906101000a900473ffffffffffffffffffffffffffffffffffffffff1681565b611170613adb565b73ffffffffffffffffffffffffffffffffffffffff1660008054906101000a900473ffffffffffffffffffffffffffffffffffffffff1673ffffffffffffffffffffffffffffffffffffffff1614611230576040517f08c379a00000000000000000000000000000000000000000000000000000000081526004018080602001828103825260208152602001807f4f776e61626c653a2063616c6c6572206973206e6f7420746865206f776e657281525060200191505060405180910390fd5b8060ff1660038190555050565b60011515601060003373ffffffffffffffffffffffffffffffffffffffff1673ffffffffffffffffffffffffffffffffffffffff16815260200190815260200160002060009054906101000a900460ff16151514611303576040517f08c379a00000000000000000000000000000000000000000000000000000000081526004018080602001828103825260198152602001807f5374616b6572206d75737420626520726567697374657265640000000000000081525060200191505060405180910390fd5b62093a80611359600f60003373ffffffffffffffffffffffffffffffffffffffff1673ffffffffffffffffffffffffffffffffffffffff1681526020019081526020016000205442613b6b90919063ffffffff16565b10156113cd576040517f08c379a000000000000000000000000000000000000000000000000000000000815260040180806020018281038252601d8152602001807f4d757374207761697420666f7220372064617973206174206c6561737400000081525060200191505060405180910390fd5b600b60003373ffffffffffffffffffffffffffffffffffffffff1673ffffffffffffffffffffffffffffffffffffffff16815260200190815260200160002054811115611482576040517f08c379a000000000000000000000000000000000000000000000000000000000815260040180806020018281038252601f8152602001807f496e73756666696369656e742062616c616e636520746f20756e7374616b650081525060200191505060405180910390fd5b60006114ac606461149e84600754613bb590919063ffffffff16565b613c3b90919063ffffffff16565b905060006114c38284613b6b90919063ffffffff16565b905060006115846114d333612be8565b61157684611568600e60003373ffffffffffffffffffffffffffffffffffffffff1673ffffffffffffffffffffffffffffffffffffffff16815260200190815260200160002054600c60003373ffffffffffffffffffffffffffffffffffffffff1673ffffffffffffffffffffffffffffffffffffffff16815260200190815260200160002054613ae390919063ffffffff16565b613ae390919063ffffffff16565b613ae390919063ffffffff16565b9050600160009054906101000a900473ffffffffffffffffffffffffffffffffffffffff1673ffffffffffffffffffffffffffffffffffffffff1663a9059cbb33836040518363ffffffff1660e01b8152600401808373ffffffffffffffffffffffffffffffffffffffff16815260200182815260200192505050602060405180830381600087803b15801561161957600080fd5b505af115801561162d573d6000803e3d6000fd5b505050506040513d602081101561164357600080fd5b8101908080519060200190929190505050506000600c60003373ffffffffffffffffffffffffffffffffffffffff1673ffffffffffffffffffffffffffffffffffffffff168152602001908152602001600020819055506116ec84600b60003373ffffffffffffffffffffffffffffffffffffffff1673ffffffffffffffffffffffffffffffffffffffff16815260200190815260200160002054613b6b90919063ffffffff16565b600b60003373ffffffffffffffffffffffffffffffffffffffff1673ffffffffffffffffffffffffffffffffffffffff168152602001908152602001600020819055506000600e60003373ffffffffffffffffffffffffffffffffffffffff1673ffffffffffffffffffffffffffffffffffffffff168152602001908152602001600020819055506000600d60003373ffffffffffffffffffffffffffffffffffffffff1673ffffffffffffffffffffffffffffffffffffffff1681526020019081526020016000208190555042600f60003373ffffffffffffffffffffffffffffffffffffffff1673ffffffffffffffffffffffffffffffffffffffff1681526020019081526020016000208190555061181284600254613b6b90919063ffffffff16565b6002819055506000600b60003373ffffffffffffffffffffffffffffffffffffffff1673ffffffffffffffffffffffffffffffffffffffff16815260200190815260200160002054141561186a5761186933613c85565b5b7fefe5e683dfe58f596b38874c815bc9599676515f5e641a3305c40aba31c822a7338585604051808473ffffffffffffffffffffffffffffffffffffffff168152602001838152602001828152602001935050505060405180910390a150505050565b600160009054906101000a900473ffffffffffffffffffffffffffffffffffffffff1681565b6118fb613adb565b73ffffffffffffffffffffffffffffffffffffffff1660008054906101000a900473ffffffffffffffffffffffffffffffffffffffff1673ffffffffffffffffffffffffffffffffffffffff16146119bb576040517f08c379a00000000000000000000000000000000000000000000000000000000081526004018080602001828103825260208152602001807f4f776e61626c653a2063616c6c6572206973206e6f7420746865206f776e657281525060200191505060405180910390fd5b8060088190555050565b600e6020528060005260406000206000915090505481565b600560009054906101000a900460ff1681565b6119f8613adb565b73ffffffffffffffffffffffffffffffffffffffff1660008054906101000a900473ffffffffffffffffffffffffffffffffffffffff1673ffffffffffffffffffffffffffffffffffffffff1614611ab8576040517f08c379a00000000000000000000000000000000000000000000000000000000081526004018080602001828103825260208152602001807f4f776e61626c653a2063616c6c6572206973206e6f7420746865206f776e657281525060200191505060405180910390fd5b60005b600a80549050811015611c9257611b90611b0b600a8381548110611adb57fe5b9060005260206000200160009054906101000a900473ffffffffffffffffffffffffffffffffffffffff16612be8565b600c6000600a8581548110611b1c57fe5b9060005260206000200160009054906101000a900473ffffffffffffffffffffffffffffffffffffffff1673ffffffffffffffffffffffffffffffffffffffff1673ffffffffffffffffffffffffffffffffffffffff16815260200190815260200160002054613ae390919063ffffffff16565b600c6000600a8481548110611ba157fe5b9060005260206000200160009054906101000a900473ffffffffffffffffffffffffffffffffffffffff1673ffffffffffffffffffffffffffffffffffffffff1673ffffffffffffffffffffffffffffffffffffffff1681526020019081526020016000208190555042600f6000600a8481548110611c1c57fe5b9060005260206000200160009054906101000a900473ffffffffffffffffffffffffffffffffffffffff1673ffffffffffffffffffffffffffffffffffffffff1673ffffffffffffffffffffffffffffffffffffffff168152602001908152602001600020819055508080600101915050611abb565b5080600560006101000a81548160ff021916908360ff16021790555050565b60035481565b611cbf613adb565b73ffffffffffffffffffffffffffffffffffffffff1660008054906101000a900473ffffffffffffffffffffffffffffffffffffffff1673ffffffffffffffffffffffffffffffffffffffff1614611d7f576040517f08c379a00000000000000000000000000000000000000000000000000000000081526004018080602001828103825260208152602001807f4f776e61626c653a2063616c6c6572206973206e6f7420746865206f776e657281525060200191505060405180910390fd5b600073ffffffffffffffffffffffffffffffffffffffff1660008054906101000a900473ffffffffffffffffffffffffffffffffffffffff1673ffffffffffffffffffffffffffffffffffffffff167f8be0079c531659141344cd1fd0a4f28419497f9722a3daafe3b4186f6b6457e060405160405180910390a360008060006101000a81548173ffffffffffffffffffffffffffffffffffffffff021916908373ffffffffffffffffffffffffffffffffffffffff160217905550565b600f6020528060005260406000206000915090505481565b60025481565b60008060009054906101000a900473ffffffffffffffffffffffffffffffffffffffff16905090565b60011515601060003373ffffffffffffffffffffffffffffffffffffffff1673ffffffffffffffffffffffffffffffffffffffff16815260200190815260200160002060009054906101000a900460ff16151514611f4a576040517f08c379a00000000000000000000000000000000000000000000000000000000081526004018080602001828103825260198152602001807f5374616b6572206d75737420626520726567697374657265640000000000000081525060200191505060405180910390fd5b62093a80611fa0600f60003373ffffffffffffffffffffffffffffffffffffffff1673ffffffffffffffffffffffffffffffffffffffff1681526020019081526020016000205442613b6b90919063ffffffff16565b1015612014576040517f08c379a000000000000000000000000000000000000000000000000000000000815260040180806020018281038252601d8152602001807f4d757374207761697420666f7220372064617973206174206c6561737400000081525060200191505060405180910390fd5b60085481101561206f576040517f08c379a00000000000000000000000000000000000000000000000000000000081526004018080602001828103825260248152602001806140736024913960400191505060405180910390fd5b80600160009054906101000a900473ffffffffffffffffffffffffffffffffffffffff1673ffffffffffffffffffffffffffffffffffffffff166370a08231336040518263ffffffff1660e01b8152600401808273ffffffffffffffffffffffffffffffffffffffff16815260200191505060206040518083038186803b1580156120f957600080fd5b505afa15801561210d573d6000803e3d6000fd5b505050506040513d602081101561212357600080fd5b8101908080519060200190929190505050101561218b576040517f08c379a0000000000000000000000000000000000000000000000000000000008152600401808060200182810382526021815260200180613f7b6021913960400191505060405180910390fd5b600160009054906101000a900473ffffffffffffffffffffffffffffffffffffffff1673ffffffffffffffffffffffffffffffffffffffff166323b872dd3330846040518463ffffffff1660e01b8152600401808473ffffffffffffffffffffffffffffffffffffffff1681526020018373ffffffffffffffffffffffffffffffffffffffff1681526020018281526020019350505050602060405180830381600087803b15801561223c57600080fd5b505af1158015612250573d6000803e3d6000fd5b505050506040513d602081101561226657600080fd5b81019080805190602001909291905050506122cc576040517f08c379a000000000000000000000000000000000000000000000000000000000815260040180806020018281038252602b815260200180614048602b913960400191505060405180910390fd5b60006122f660646122e884600354613bb590919063ffffffff16565b613c3b90919063ffffffff16565b9050600061230d8284613b6b90919063ffffffff16565b905061232481600254613ae390919063ffffffff16565b60028190555061238461233633612be8565b600c60003373ffffffffffffffffffffffffffffffffffffffff1673ffffffffffffffffffffffffffffffffffffffff16815260200190815260200160002054613ae390919063ffffffff16565b600c60003373ffffffffffffffffffffffffffffffffffffffff1673ffffffffffffffffffffffffffffffffffffffff1681526020019081526020016000208190555042600f60003373ffffffffffffffffffffffffffffffffffffffff1673ffffffffffffffffffffffffffffffffffffffff1681526020019081526020016000208190555061245d81600b60003373ffffffffffffffffffffffffffffffffffffffff1673ffffffffffffffffffffffffffffffffffffffff16815260200190815260200160002054613ae390919063ffffffff16565b600b60003373ffffffffffffffffffffffffffffffffffffffff1673ffffffffffffffffffffffffffffffffffffffff168152602001908152602001600020819055507ffeb41de252fbc1de97d95a27ed44f6044e66e11df6ca319955eef830b598fdb4338284604051808473ffffffffffffffffffffffffffffffffffffffff168152602001838152602001828152602001935050505060405180910390a1505050565b60106020528060005260406000206000915054906101000a900460ff1681565b61252a613adb565b73ffffffffffffffffffffffffffffffffffffffff1660008054906101000a900473ffffffffffffffffffffffffffffffffffffffff1673ffffffffffffffffffffffffffffffffffffffff16146125ea576040517f08c379a00000000000000000000000000000000000000000000000000000000081526004018080602001828103825260208152602001807f4f776e61626c653a2063616c6c6572206973206e6f7420746865206f776e657281525060200191505060405180910390fd5b8060098190555050565b60011515601060003373ffffffffffffffffffffffffffffffffffffffff1673ffffffffffffffffffffffffffffffffffffffff16815260200190815260200160002060009054906101000a900460ff161515146126ba576040517f08c379a00000000000000000000000000000000000000000000000000000000081526004018080602001828103825260198152602001807f5374616b6572206d75737420626520726567697374657265640000000000000081525060200191505060405180910390fd5b62093a80612710600f60003373ffffffffffffffffffffffffffffffffffffffff1673ffffffffffffffffffffffffffffffffffffffff1681526020019081526020016000205442613b6b90919063ffffffff16565b1015612784576040517f08c379a000000000000000000000000000000000000000000000000000000000815260040180806020018281038252601d8152602001807f4d757374207761697420666f7220372064617973206174206c6561737400000081525060200191505060405180910390fd5b600061283161279233612be8565b612823600c60003373ffffffffffffffffffffffffffffffffffffffff1673ffffffffffffffffffffffffffffffffffffffff16815260200190815260200160002054600e60003373ffffffffffffffffffffffffffffffffffffffff1673ffffffffffffffffffffffffffffffffffffffff16815260200190815260200160002054613ae390919063ffffffff16565b613ae390919063ffffffff16565b9050600081116128a9576040517f08c379a00000000000000000000000000000000000000000000000000000000081526004018080602001828103825260158152602001807f4e6f2072657761726420746f207769746864726177000000000000000000000081525060200191505060405180910390fd5b600160009054906101000a900473ffffffffffffffffffffffffffffffffffffffff1673ffffffffffffffffffffffffffffffffffffffff1663a9059cbb33836040518363ffffffff1660e01b8152600401808373ffffffffffffffffffffffffffffffffffffffff16815260200182815260200192505050602060405180830381600087803b15801561293c57600080fd5b505af1158015612950573d6000803e3d6000fd5b505050506040513d602081101561296657600080fd5b8101908080519060200190929190505050506000600c60003373ffffffffffffffffffffffffffffffffffffffff1673ffffffffffffffffffffffffffffffffffffffff168152602001908152602001600020819055506000600e60003373ffffffffffffffffffffffffffffffffffffffff1673ffffffffffffffffffffffffffffffffffffffff168152602001908152602001600020819055506000600d60003373ffffffffffffffffffffffffffffffffffffffff1673ffffffffffffffffffffffffffffffffffffffff1681526020019081526020016000208190555042600f60003373ffffffffffffffffffffffffffffffffffffffff1673ffffffffffffffffffffffffffffffffffffffff168152602001908152602001600020819055507fefbfe3c015941f3419cd0c7f713fd74c6874d0da2d765adc7f700370ccd5ba5c3382604051808373ffffffffffffffffffffffffffffffffffffffff1681526020018281526020019250505060405180910390a150565b600c6020528060005260406000206000915090505481565b612b03613adb565b73ffffffffffffffffffffffffffffffffffffffff1660008054906101000a900473ffffffffffffffffffffffffffffffffffffffff1673ffffffffffffffffffffffffffffffffffffffff1614612bc3576040517f08c379a00000000000000000000000000000000000000000000000000000000081526004018080602001828103825260208152602001807f4f776e61626c653a2063616c6c6572206973206e6f7420746865206f776e657281525060200191505060405180910390fd5b8060ff1660078190555050565b600d6020528060005260406000206000915090505481565b600080612c5262093a80612c44600f60008773ffffffffffffffffffffffffffffffffffffffff1673ffffffffffffffffffffffffffffffffffffffff1681526020019081526020016000205442613b6b90919063ffffffff16565b613c3b90919063ffffffff16565b9050612cdd6064612ccf83612cc1600560009054906101000a900460ff1660ff16600b60008a73ffffffffffffffffffffffffffffffffffffffff1673ffffffffffffffffffffffffffffffffffffffff16815260200190815260200160002054613bb590919063ffffffff16565b613bb590919063ffffffff16565b613c3b90919063ffffffff16565b915050919050565b60008060005b600a80549050811015612d7b57600a8181548110612d0557fe5b9060005260206000200160009054906101000a900473ffffffffffffffffffffffffffffffffffffffff1673ffffffffffffffffffffffffffffffffffffffff168473ffffffffffffffffffffffffffffffffffffffff161415612d70576001819250925050612d84565b600181019050612ceb565b50600080915091505b915091565b60095481565b60065481565b60001515601060003373ffffffffffffffffffffffffffffffffffffffff1673ffffffffffffffffffffffffffffffffffffffff16815260200190815260200160002060009054906101000a900460ff16151514612e5b576040517f08c379a000000000000000000000000000000000000000000000000000000000815260040180806020018281038252601c8152602001807f5374616b657220697320616c726561647920726567697374657265640000000081525060200191505060405180910390fd5b8073ffffffffffffffffffffffffffffffffffffffff163373ffffffffffffffffffffffffffffffffffffffff161415612efd576040517f08c379a00000000000000000000000000000000000000000000000000000000081526004018080602001828103825260118152602001807f43616e6e6f742072656665722073656c6600000000000000000000000000000081525060200191505060405180910390fd5b81600160009054906101000a900473ffffffffffffffffffffffffffffffffffffffff1673ffffffffffffffffffffffffffffffffffffffff166370a08231336040518263ffffffff1660e01b8152600401808273ffffffffffffffffffffffffffffffffffffffff16815260200191505060206040518083038186803b158015612f8757600080fd5b505afa158015612f9b573d6000803e3d6000fd5b505050506040513d6020811015612fb157600080fd5b81019080805190602001909291905050501015613019576040517f08c379a0000000000000000000000000000000000000000000000000000000008152600401808060200182810382526021815260200180613f7b6021913960400191505060405180910390fd5b600160009054906101000a900473ffffffffffffffffffffffffffffffffffffffff1673ffffffffffffffffffffffffffffffffffffffff166323b872dd3330856040518463ffffffff1660e01b8152600401808473ffffffffffffffffffffffffffffffffffffffff1681526020018373ffffffffffffffffffffffffffffffffffffffff1681526020018281526020019350505050602060405180830381600087803b1580156130ca57600080fd5b505af11580156130de573d6000803e3d6000fd5b505050506040513d60208110156130f457600080fd5b810190808051906020019092919050505061315a576040517f08c379a000000000000000000000000000000000000000000000000000000000815260040180806020018281038252602b815260200180614048602b913960400191505060405180910390fd5b613171600854600454613ae390919063ffffffff16565b8210156131c9576040517f08c379a0000000000000000000000000000000000000000000000000000000008152600401808060200182810382526037815260200180613fe86037913960400191505060405180910390fd5b60006131f560646131e7600954600454613bb590919063ffffffff16565b613c3b90919063ffffffff16565b9050600061320e60045485613b6b90919063ffffffff16565b9050600061323a606461322c84600354613bb590919063ffffffff16565b613c3b90919063ffffffff16565b9050600073ffffffffffffffffffffffffffffffffffffffff168473ffffffffffffffffffffffffffffffffffffffff161461335557600d60008573ffffffffffffffffffffffffffffffffffffffff1673ffffffffffffffffffffffffffffffffffffffff1681526020019081526020016000206000815480929190600101919050555061331183600e60008773ffffffffffffffffffffffffffffffffffffffff1673ffffffffffffffffffffffffffffffffffffffff16815260200190815260200160002054613ae390919063ffffffff16565b600e60008673ffffffffffffffffffffffffffffffffffffffff1673ffffffffffffffffffffffffffffffffffffffff168152602001908152602001600020819055505b6133b9816133ab84600b60003373ffffffffffffffffffffffffffffffffffffffff1673ffffffffffffffffffffffffffffffffffffffff16815260200190815260200160002054613ae390919063ffffffff16565b613b6b90919063ffffffff16565b600b60003373ffffffffffffffffffffffffffffffffffffffff1673ffffffffffffffffffffffffffffffffffffffff168152602001908152602001600020819055506134238161341584600254613ae390919063ffffffff16565b613b6b90919063ffffffff16565b6002819055506001601060003373ffffffffffffffffffffffffffffffffffffffff1673ffffffffffffffffffffffffffffffffffffffff16815260200190815260200160002060006101000a81548160ff021916908315150217905550600a339080600181540180825580915050600190039060005260206000200160009091909190916101000a81548173ffffffffffffffffffffffffffffffffffffffff021916908373ffffffffffffffffffffffffffffffffffffffff16021790555042600f60003373ffffffffffffffffffffffffffffffffffffffff1673ffffffffffffffffffffffffffffffffffffffff168152602001908152602001600020819055507f2aef494423269f61b2dd75f1f1e289ef00d20b5a68bd5a6740c518cddd9a865b338661356084600454613ae390919063ffffffff16565b87604051808573ffffffffffffffffffffffffffffffffffffffff1681526020018481526020018381526020018273ffffffffffffffffffffffffffffffffffffffff16815260200194505050505060405180910390a15050505050565b6135c6613adb565b73ffffffffffffffffffffffffffffffffffffffff1660008054906101000a900473ffffffffffffffffffffffffffffffffffffffff1673ffffffffffffffffffffffffffffffffffffffff1614613686576040517f08c379a00000000000000000000000000000000000000000000000000000000081526004018080602001828103825260208152602001807f4f776e61626c653a2063616c6c6572206973206e6f7420746865206f776e657281525060200191505060405180910390fd5b600073ffffffffffffffffffffffffffffffffffffffff168173ffffffffffffffffffffffffffffffffffffffff16141561370c576040517f08c379a0000000000000000000000000000000000000000000000000000000008152600401808060200182810382526026815260200180613f556026913960400191505060405180910390fd5b8073ffffffffffffffffffffffffffffffffffffffff1660008054906101000a900473ffffffffffffffffffffffffffffffffffffffff1673ffffffffffffffffffffffffffffffffffffffff167f8be0079c531659141344cd1fd0a4f28419497f9722a3daafe3b4186f6b6457e060405160405180910390a3806000806101000a81548173ffffffffffffffffffffffffffffffffffffffff021916908373ffffffffffffffffffffffffffffffffffffffff16021790555050565b6137d1613adb565b73ffffffffffffffffffffffffffffffffffffffff1660008054906101000a900473ffffffffffffffffffffffffffffffffffffffff1673ffffffffffffffffffffffffffffffffffffffff1614613891576040517f08c379a00000000000000000000000000000000000000000000000000000000081526004018080602001828103825260208152602001807f4f776e61626c653a2063616c6c6572206973206e6f7420746865206f776e657281525060200191505060405180910390fd5b80600160009054906101000a900473ffffffffffffffffffffffffffffffffffffffff1673ffffffffffffffffffffffffffffffffffffffff166370a08231336040518263ffffffff1660e01b8152600401808273ffffffffffffffffffffffffffffffffffffffff16815260200191505060206040518083038186803b15801561391b57600080fd5b505afa15801561392f573d6000803e3d6000fd5b505050506040513d602081101561394557600080fd5b810190808051906020019092919050505010156139ad576040517f08c379a000000000000000000000000000000000000000000000000000000000815260040180806020018281038252602b815260200180613f9c602b913960400191505060405180910390fd5b600160009054906101000a900473ffffffffffffffffffffffffffffffffffffffff1673ffffffffffffffffffffffffffffffffffffffff1663a9059cbb83836040518363ffffffff1660e01b8152600401808373ffffffffffffffffffffffffffffffffffffffff16815260200182815260200192505050602060405180830381600087803b158015613a4057600080fd5b505af1158015613a54573d6000803e3d6000fd5b505050506040513d6020811015613a6a57600080fd5b8101908080519060200190929190505050507fefbfe3c015941f3419cd0c7f713fd74c6874d0da2d765adc7f700370ccd5ba5c8282604051808373ffffffffffffffffffffffffffffffffffffffff1681526020018281526020019250505060405180910390a15050565b60075481565b600033905090565b600080828401905083811015613b61576040517f08c379a000000000000000000000000000000000000000000000000000000000815260040180806020018281038252601b8152602001807f536166654d6174683a206164646974696f6e206f766572666c6f77000000000081525060200191505060405180910390fd5b8091505092915050565b6000613bad83836040518060400160405280601e81526020017f536166654d6174683a207375627472616374696f6e206f766572666c6f770000815250613dce565b905092915050565b600080831415613bc85760009050613c35565b6000828402905082848281613bd957fe5b0414613c30576040517f08c379a0000000000000000000000000000000000000000000000000000000008152600401808060200182810382526021815260200180613fc76021913960400191505060405180910390fd5b809150505b92915050565b6000613c7d83836040518060400160405280601a81526020017f536166654d6174683a206469766973696f6e206279207a65726f000000000000815250613e8e565b905092915050565b6000601060003373ffffffffffffffffffffffffffffffffffffffff1673ffffffffffffffffffffffffffffffffffffffff16815260200190815260200160002060006101000a81548160ff021916908315150217905550600080613ce983612ce5565b915091508115613dc957600a6001600a805490500381548110613d0857fe5b9060005260206000200160009054906101000a900473ffffffffffffffffffffffffffffffffffffffff16600a8281548110613d4057fe5b9060005260206000200160006101000a81548173ffffffffffffffffffffffffffffffffffffffff021916908373ffffffffffffffffffffffffffffffffffffffff160217905550600a805480613d9357fe5b6001900381819060005260206000200160006101000a81549073ffffffffffffffffffffffffffffffffffffffff021916905590555b505050565b6000838311158290613e7b576040517f08c379a00000000000000000000000000000000000000000000000000000000081526004018080602001828103825283818151815260200191508051906020019080838360005b83811015613e40578082015181840152602081019050613e25565b50505050905090810190601f168015613e6d5780820380516001836020036101000a031916815260200191505b509250505060405180910390fd5b5060008385039050809150509392505050565b60008083118290613f3a576040517f08c379a00000000000000000000000000000000000000000000000000000000081526004018080602001828103825283818151815260200191508051906020019080838360005b83811015613eff578082015181840152602081019050613ee4565b50505050905090810190601f168015613f2c5780820380516001836020036101000a031916815260200191505b509250505060405180910390fd5b506000838581613f4657fe5b04905080915050939250505056fe4f776e61626c653a206e6577206f776e657220697320746865207a65726f20616464726573734d757374206861766520656e6f7567682062616c616e636520746f207374616b65496e73756666696369656e74204c4541442062616c616e636520696e20736d61727420636f6e7472616374536166654d6174683a206d756c7469706c69636174696f6e206f766572666c6f774d7573742073656e64206174206c6561737420656e6f756768204c45414420746f2070617920726567697374726174696f6e206665652e496e73756666696369656e74204c4541442062616c616e636520696e206f776e65722077616c6c65745374616b65206661696c65642064756520746f206661696c656420616d6f756e74207472616e736665722e416d6f756e742069732062656c6f77206d696e696d756d207374616b652076616c75652ea2646970667358221220891810178296f5e93b9b1d006b372890287ebfb3cbe20e5217cd482829fc25d664736f6c634300060c0033",
  "source": "//\"SPDX-License-Identifier: UNLICENSED\"\r\n\r\npragma solidity ^0.6.0;\r\n\r\nimport '@openzeppelin/contracts/math/SafeMath.sol';\r\n\r\nimport '@openzeppelin/contracts/token/ERC20/IERC20.sol';\r\n\r\nimport '@openzeppelin/contracts/access/Ownable.sol';\r\n\r\ncontract LeadStake is Ownable {\r\n    \r\n    //initializing safe computations\r\n    using SafeMath for uint;\r\n\r\n    //LEAD contract address\r\n    address public lead;\r\n    //total amount of staked lead\r\n    uint public totalStaked;\r\n    //tax rate for staking in percentage\r\n    uint public stakingTaxRate;\r\n    //tax amount for registration\r\n    uint public registrationTax;\r\n    //daily return of investment in percentage\r\n    uint8 public weeklyROI;\r\n    //total amount of LEAD distributed\r\n    uint public totalDistributed;\r\n    //tax rate for unstaking in percentage\r\n    uint public unstakingTaxRate;\r\n    //minimum stakeable LEAD \r\n    uint public minimumStakeValue;\r\n    //referral allocation from the registration tax\r\n    uint public referralTaxAllocation;\r\n    //list of stakeholders' addresses\r\n    address[] public stakeholders;\r\n    //mapping of stakeholders' address to number of stakes\r\n    mapping(address => uint) public stakes;\r\n    //mapping of stakeholders' address to stake rewards\r\n    mapping(address => uint) public stakeRewards;\r\n    //mapping of stakeholders' address to number of referrals \r\n    mapping(address => uint) public referralCount;\r\n    //mapping of stakeholders' address to referral rewards earned \r\n    mapping(address => uint) public referralRewards;\r\n    //mapping of stakeholder's address to last transaction time for reward calculation\r\n    mapping(address => uint) public lastClock;\r\n    //mapping of addresses to verify registered stakers\r\n    mapping(address => bool) public registered;\r\n    \r\n    //Events\r\n    event OnWithdrawal(address sender, uint amount);\r\n    event OnStake(address sender, uint amount, uint tax);\r\n    event OnUnstake(address sender, uint amount, uint tax);\r\n    event OnDeposit(address sender, uint amount, uint time);\r\n    event OnRegisterAndStake(address stakeholder, uint amount, uint totalTax , address _referrer);\r\n    \r\n    /**\r\n     * @dev Sets the initial values\r\n     */\r\n    constructor(\r\n        address _token,\r\n        uint8 _stakingTaxRate, \r\n        uint8 _unstakingTaxRate,\r\n        uint8 _weeklyROI,\r\n        uint _registrationTax,\r\n        uint _referralTaxAllocation,\r\n        uint _minimumStakeValue) public {\r\n            \r\n        //set initial state variables\r\n        lead = _token;\r\n        stakingTaxRate = _stakingTaxRate;\r\n        unstakingTaxRate = _unstakingTaxRate;\r\n        weeklyROI = _weeklyROI;\r\n        registrationTax = _registrationTax;\r\n        referralTaxAllocation = _referralTaxAllocation;\r\n        minimumStakeValue = _minimumStakeValue;\r\n    }\r\n    \r\n    //exclusive access for registered address\r\n    modifier onlyRegistered() {\r\n        require(registered[msg.sender] == true, \"Staker must be registered\");\r\n        _;\r\n    }\r\n    \r\n    //exclusive access for unregistered address\r\n    modifier onlyUnregistered() {\r\n        require(registered[msg.sender] == false, \"Staker is already registered\");\r\n        _;\r\n    }\r\n    \r\n    /**\r\n     * registers and creates stakes for new stakeholders\r\n     * deducts the registration tax and staking tax\r\n     * calculates refferal bonus from the registration tax and sends it to the _referrer if there is one\r\n     * transfers LEAD from sender's address into the smart contract\r\n     * Emits an {OnRegisterAndStake} event..\r\n     */\r\n    function registerAndStake(uint _amount, address _referrer) external onlyUnregistered() {\r\n        //makes sure user is not the referrer\r\n        require(msg.sender != _referrer, \"Cannot refer self\");\r\n        //makes sure user has enough amount\r\n        require(IERC20(lead).balanceOf(msg.sender) >= _amount, \"Must have enough balance to stake\");\r\n        //makes sure smart contract transfers LEAD from user\r\n        require(IERC20(lead).transferFrom(msg.sender, address(this), _amount), \"Stake failed due to failed amount transfer.\");\r\n        //makes sure amount is more than the registration fee and the minimum deposit\r\n        require(_amount >= registrationTax.add(minimumStakeValue), \"Must send at least enough LEAD to pay registration fee.\");\r\n        //calculates referral bonus\r\n        uint referralBonus = (registrationTax.mul(referralTaxAllocation)).div(100);\r\n        //calculates final amount after deducting registration tax\r\n        uint finalAmount = _amount.sub(registrationTax);\r\n        //calculates staking tax on final calculated amount\r\n        uint stakingTax = (stakingTaxRate.mul(finalAmount)).div(100);\r\n        //conditional statement if user registers with referrer \r\n        if(_referrer != address(0x0)) {\r\n            //increase referral count of referrer\r\n            referralCount[_referrer]++;\r\n            //add referral bonus to referrer\r\n            referralRewards[_referrer] = referralRewards[_referrer].add(referralBonus);\r\n        } \r\n        //update the user's stakes deducting the staking tax\r\n        stakes[msg.sender] = stakes[msg.sender].add(finalAmount).sub(stakingTax);\r\n        //update the total staked LEAD amount in the pool\r\n        totalStaked = totalStaked.add(finalAmount).sub(stakingTax);\r\n        //register user and add to stakeholders list\r\n        registered[msg.sender] = true;\r\n        stakeholders.push(msg.sender);\r\n        //mark the transaction date\r\n        lastClock[msg.sender] = now;\r\n        //emit event\r\n        emit OnRegisterAndStake(msg.sender, _amount, registrationTax.add(stakingTax), _referrer);\r\n    }\r\n    \r\n    //calculates stakeholders latest unclaimed earnings \r\n    function calculateEarnings(address _stakeholder) public view returns(uint) {\r\n        //records the number of weeks between the last payout time and now\r\n        uint activeWeeks = (now.sub(lastClock[_stakeholder])).div(604800);\r\n        //returns earnings based on daily ROI and active days\r\n        return (stakes[_stakeholder].mul(weeklyROI).mul(activeWeeks)).div(100);\r\n    }\r\n    \r\n    /**\r\n     * creates stakes for already registered stakeholders\r\n     * deducts the staking tax from _amount inputted\r\n     * registers the remainder in the stakes of the sender\r\n     * records the previous earnings before updated stakes \r\n     * Emits an {OnStake} event\r\n     */\r\n    function stake(uint _amount) external onlyRegistered() {\r\n        //makes sure the time interval between the last payout time and now is up to 1 week\r\n        require(now.sub(lastClock[msg.sender]) >= 604800, 'Must wait for 7 days at least');\r\n        //makes sure stakeholder does not stake below the minimum\r\n        require(_amount >= minimumStakeValue, \"Amount is below minimum stake value.\");\r\n        //makes sure stakeholder has enough balance\r\n        require(IERC20(lead).balanceOf(msg.sender) >= _amount, \"Must have enough balance to stake\");\r\n        //makes sure smart contract transfers LEAD from user\r\n        require(IERC20(lead).transferFrom(msg.sender, address(this), _amount), \"Stake failed due to failed amount transfer.\");\r\n        //calculates staking tax on amount\r\n        uint stakingTax = (stakingTaxRate.mul(_amount)).div(100);\r\n        //calculates amount after tax\r\n        uint afterTax = _amount.sub(stakingTax);\r\n        //update the total staked LEAD amount in the pool\r\n        totalStaked = totalStaked.add(afterTax);\r\n        //adds earnings current earnings to stakeRewards\r\n        stakeRewards[msg.sender] = stakeRewards[msg.sender].add(calculateEarnings(msg.sender));\r\n        //mark transaction date\r\n        lastClock[msg.sender] = now;\r\n        //updates stakeholder's stakes\r\n        stakes[msg.sender] = stakes[msg.sender].add(afterTax);\r\n        //emit event\r\n        emit OnStake(msg.sender, afterTax, stakingTax);\r\n    }\r\n    \r\n    \r\n    /**\r\n     * removes '_amount' stakes for already registered stakeholders\r\n     * deducts the unstaking tax from '_amount'\r\n     * transfers the sum of the remainder, stake rewards, referral rewards, and current eanrings to the sender \r\n     * deregisters stakeholder if all the stakes are removed\r\n     * Emits an {OnStake} event\r\n     */\r\n    function unstake(uint _amount) external onlyRegistered() {\r\n        //makes sure the time interval between the last payout time and now is up to 1 week\r\n        require(now.sub(lastClock[msg.sender]) >= 604800, 'Must wait for 7 days at least');\r\n        //makes sure _amount is not more than stake balance\r\n        require(_amount <= stakes[msg.sender], 'Insufficient balance to unstake');\r\n        //calculates unstaking tax\r\n        uint unstakingTax = (unstakingTaxRate.mul(_amount)).div(100);\r\n        //calculates amount after tax\r\n        uint afterTax = _amount.sub(unstakingTax);\r\n        //sums up stakeholder's total rewards with _amount deducting unstaking tax\r\n        uint unstakePlusAllEarnings = stakeRewards[msg.sender].add(referralRewards[msg.sender]).add(afterTax).add(calculateEarnings(msg.sender));\r\n        //transfers value to stakeholder\r\n        IERC20(lead).transfer(msg.sender, unstakePlusAllEarnings);\r\n        //initializes stake rewards\r\n        stakeRewards[msg.sender] = 0;\r\n        //updates stakes\r\n        stakes[msg.sender] = stakes[msg.sender].sub(_amount);\r\n        //initializes referral rewards\r\n        referralRewards[msg.sender] = 0;\r\n        //initializes referral count\r\n        referralCount[msg.sender] = 0;\r\n        //mark transaction date \r\n        lastClock[msg.sender] = now;\r\n        //update the total staked LEAD amount in the pool\r\n        totalStaked = totalStaked.sub(_amount);\r\n        //conditional statement if stakeholder has no stake left\r\n        if(stakes[msg.sender] == 0) {\r\n            //deregister stakeholder\r\n            _removeStakeholder(msg.sender);\r\n        }\r\n        //emit event\r\n        emit OnUnstake(msg.sender, _amount, unstakingTax);\r\n    }\r\n    \r\n    /**\r\n     * checks if _address is a registered stakeholder\r\n     * returns 'true' and 'id number' if stakeholder and 'false' and '0'  if not\r\n     */\r\n    function isStakeholder(address _address) public view returns(bool, uint) {\r\n        //loops through the stakeholders list\r\n        for (uint i = 0; i < stakeholders.length; i += 1){\r\n            //conditional statement if address is stakeholder\r\n            if (_address == stakeholders[i]) {\r\n                //returns true and list id\r\n                return (true, i);\r\n            }\r\n        }\r\n        //returns false and 0\r\n        return (false, 0);\r\n    }\r\n    \r\n    //deregisters _stakeholder and removes address from stakeholders list\r\n    function _removeStakeholder(address _stakeholder) internal {\r\n        //changes registered staus to false\r\n        registered[msg.sender] = false;\r\n        //identify stakeholder in the stakeholders list\r\n        (bool _isStakeholder, uint i) = isStakeholder(_stakeholder);\r\n        if(_isStakeholder){\r\n            //transfer stakeholdeer to last id in the list\r\n            stakeholders[i] = stakeholders[stakeholders.length - 1];\r\n            //delete last id of the list\r\n            stakeholders.pop();\r\n        }\r\n    }\r\n    \r\n    //transfers total active earnng to stakeholders wallett\r\n    function withdrawEarnings() external onlyRegistered() {\r\n        //makes sure the time interval between the last payout time and now is up to 1 week\r\n        require(now.sub(lastClock[msg.sender]) >= 604800, 'Must wait for 7 days at least');\r\n        //calculates the total redeemable rewards\r\n        uint totalReward = referralRewards[msg.sender].add(stakeRewards[msg.sender]).add(calculateEarnings(msg.sender));\r\n        //makes sure user has rewards to withdraw before execution\r\n        require(totalReward > 0, 'No reward to withdraw'); \r\n        //transfers total rewards to stakeholder\r\n        IERC20(lead).transfer(msg.sender, totalReward);\r\n        //initializes stake rewards\r\n        stakeRewards[msg.sender] = 0;\r\n        //initializes referal rewards\r\n        referralRewards[msg.sender] = 0;\r\n        //initializes referral count\r\n        referralCount[msg.sender] = 0;\r\n        //registers transaction date\r\n        lastClock[msg.sender] = now;\r\n        //emit event\r\n        emit OnWithdrawal(msg.sender, totalReward);\r\n    }\r\n\r\n    //sets the staking rate\r\n    function setStakingTaxRate(uint8 _stakingTaxRate) external onlyOwner() {\r\n        stakingTaxRate = _stakingTaxRate;\r\n    }\r\n    \r\n    //sets the unstaking rate\r\n    function setUnstakingTaxRate(uint8 _unstakingTaxRate) external onlyOwner() {\r\n        unstakingTaxRate = _unstakingTaxRate;\r\n    }\r\n    \r\n    //sets the weekly ROI\r\n    function setweeklyROI(uint8 _weeklyROI) external onlyOwner() {\r\n        for(uint i = 0; i < stakeholders.length; i++){\r\n            //registers all previous earnings\r\n            stakeRewards[stakeholders[i]] = stakeRewards[stakeholders[i]].add(calculateEarnings(stakeholders[i]));\r\n            //logs transaction time\r\n            lastClock[stakeholders[i]] = now;\r\n        }\r\n        weeklyROI = _weeklyROI;\r\n    }\r\n    \r\n    //sets the registration tax\r\n    function setRegistrationTax(uint _registrationTax) external onlyOwner() {\r\n        registrationTax = _registrationTax;\r\n    }\r\n    \r\n    //sets the refferal tax allocation \r\n    function setReferralTaxAllocation(uint _referralTaxAllocation) external onlyOwner() {\r\n        referralTaxAllocation = _referralTaxAllocation;\r\n    }\r\n    \r\n    //sets the minimum stake value\r\n    function setMinimumStakeValue(uint _minimumStakeValue) external onlyOwner() {\r\n        minimumStakeValue = _minimumStakeValue;\r\n    }\r\n    \r\n    //supplies LEAD from 'owner' to smart contract if pool balance runs dry\r\n    function supplyPool() external onlyOwner() {\r\n        //total balance that can be claimed in the pool\r\n        uint totalClaimable;\r\n        //loop through stakeholders' list\r\n        for(uint i = 0; i < stakeholders.length; i++){\r\n            //sum up all redeemable LEAD\r\n            totalClaimable = stakeRewards[stakeholders[i]].add(referralRewards[stakeholders[i]]).add(stakes[stakeholders[i]]).add(calculateEarnings(stakeholders[i]));\r\n        }\r\n        //calculate difference\r\n        uint difference = totalClaimable.sub(IERC20(lead).balanceOf(address(this)));\r\n        //makes sure the pool dept is higher than balance\r\n        require(totalClaimable > IERC20(lead).balanceOf(address(this)), 'Still have enough pool reserve');\r\n        //makes sure 'owner' has enough balance\r\n        require(IERC20(lead).balanceOf(msg.sender) >= difference, 'Insufficient LEAD balance in owner wallet');\r\n        //transfers LEAD from 'owner' to smart contract to make up for dept\r\n        IERC20(lead).transferFrom(msg.sender, address(this), difference);\r\n        //emits event\r\n        emit OnDeposit(msg.sender, difference, now);\r\n    }\r\n    \r\n    //withdraws _amount from the pool to _address\r\n    function withdraw(address _address, uint _amount) external onlyOwner {\r\n        //makes sure _amount is not more than smart contract balance\r\n        require(IERC20(lead).balanceOf(msg.sender) >= _amount, 'Insufficient LEAD balance in smart contract');\r\n        //transfers _amount to _address\r\n        IERC20(lead).transfer(_address, _amount);\r\n        //emit event\r\n        emit OnWithdrawal(_address, _amount);\r\n    }\r\n}",
  "sourcePath": "C:\\Users\\LENOVO\\Desktop\\THE GRIND\\Blockchain Dev\\gitrepo\\LeadStake\\contracts\\LeadStake.sol",
  "compiler": {
    "name": "solc",
    "version": "0.6.12+commit.27d51765.Emscripten.clang"
  },
  "schemaVersion": "3.0.23",
  "updatedAt": "2020-09-14T15:21:27.070Z",
  "networkType": "ethereum",
  "devdoc": {
    "kind": "dev",
    "methods": {
      "constructor": {
        "details": "Sets the initial values"
      },
      "owner()": {
        "details": "Returns the address of the current owner."
      },
      "renounceOwnership()": {
        "details": "Leaves the contract without owner. It will not be possible to call `onlyOwner` functions anymore. Can only be called by the current owner. NOTE: Renouncing ownership will leave the contract without an owner, thereby removing any functionality that is only available to the owner."
      },
      "transferOwnership(address)": {
        "details": "Transfers ownership of the contract to a new account (`newOwner`). Can only be called by the current owner."
      }
    },
    "version": 1
  },
  "userdoc": {
    "kind": "user",
    "methods": {
      "isStakeholder(address)": {
        "notice": "checks if _address is a registered stakeholder returns 'true' and 'id number' if stakeholder and 'false' and '0'  if not"
      },
      "registerAndStake(uint256,address)": {
        "notice": "registers and creates stakes for new stakeholders deducts the registration tax and staking tax calculates refferal bonus from the registration tax and sends it to the _referrer if there is one transfers LEAD from sender's address into the smart contract Emits an {OnRegisterAndStake} event.."
      },
      "stake(uint256)": {
        "notice": "creates stakes for already registered stakeholders deducts the staking tax from _amount inputted registers the remainder in the stakes of the sender records the previous earnings before updated stakes  Emits an {OnStake} event"
      },
      "unstake(uint256)": {
        "notice": "removes '_amount' stakes for already registered stakeholders deducts the unstaking tax from '_amount' transfers the sum of the remainder, stake rewards, referral rewards, and current eanrings to the sender  deregisters stakeholder if all the stakes are removed Emits an {OnStake} event"
      }
    },
    "version": 1
  }
}