{
  "contractName": "LeadStake",
  "abi": [
    {
      "inputs": [
        {
          "internalType": "address",
          "name": "_token",
          "type": "address"
        },
        {
          "internalType": "uint8",
          "name": "_stakingTaxRate",
          "type": "uint8"
        },
        {
          "internalType": "uint8",
          "name": "_unstakingTaxRate",
          "type": "uint8"
        },
        {
          "internalType": "uint8",
          "name": "_dailyROI",
          "type": "uint8"
        },
        {
          "internalType": "uint256",
          "name": "_registrationTax",
          "type": "uint256"
        },
        {
          "internalType": "uint256",
          "name": "_referralTaxAllocation",
          "type": "uint256"
        },
        {
          "internalType": "uint256",
          "name": "_minimumStakeValue",
          "type": "uint256"
        }
      ],
      "stateMutability": "nonpayable",
      "type": "constructor"
    },
    {
      "anonymous": false,
      "inputs": [
        {
          "indexed": false,
          "internalType": "address",
          "name": "sender",
          "type": "address"
        },
        {
          "indexed": false,
          "internalType": "uint256",
          "name": "amount",
          "type": "uint256"
        },
        {
          "indexed": false,
          "internalType": "uint256",
          "name": "time",
          "type": "uint256"
        }
      ],
      "name": "OnDeposit",
      "type": "event"
    },
    {
      "anonymous": false,
      "inputs": [
        {
          "indexed": false,
          "internalType": "address",
          "name": "stakeholder",
          "type": "address"
        },
        {
          "indexed": false,
          "internalType": "uint256",
          "name": "amount",
          "type": "uint256"
        },
        {
          "indexed": false,
          "internalType": "uint256",
          "name": "totalTax",
          "type": "uint256"
        },
        {
          "indexed": false,
          "internalType": "address",
          "name": "_referrer",
          "type": "address"
        }
      ],
      "name": "OnRegisterAndStake",
      "type": "event"
    },
    {
      "anonymous": false,
      "inputs": [
        {
          "indexed": false,
          "internalType": "address",
          "name": "sender",
          "type": "address"
        },
        {
          "indexed": false,
          "internalType": "uint256",
          "name": "amount",
          "type": "uint256"
        },
        {
          "indexed": false,
          "internalType": "uint256",
          "name": "tax",
          "type": "uint256"
        }
      ],
      "name": "OnStake",
      "type": "event"
    },
    {
      "anonymous": false,
      "inputs": [
        {
          "indexed": false,
          "internalType": "address",
          "name": "sender",
          "type": "address"
        },
        {
          "indexed": false,
          "internalType": "uint256",
          "name": "amount",
          "type": "uint256"
        },
        {
          "indexed": false,
          "internalType": "uint256",
          "name": "tax",
          "type": "uint256"
        }
      ],
      "name": "OnUnstake",
      "type": "event"
    },
    {
      "anonymous": false,
      "inputs": [
        {
          "indexed": false,
          "internalType": "address",
          "name": "sender",
          "type": "address"
        },
        {
          "indexed": false,
          "internalType": "uint256",
          "name": "amount",
          "type": "uint256"
        }
      ],
      "name": "OnWithdrawal",
      "type": "event"
    },
    {
      "anonymous": false,
      "inputs": [
        {
          "indexed": true,
          "internalType": "address",
          "name": "previousOwner",
          "type": "address"
        },
        {
          "indexed": true,
          "internalType": "address",
          "name": "newOwner",
          "type": "address"
        }
      ],
      "name": "OwnershipTransferred",
      "type": "event"
    },
    {
      "inputs": [],
      "name": "dailyROI",
      "outputs": [
        {
          "internalType": "uint8",
          "name": "",
          "type": "uint8"
        }
      ],
      "stateMutability": "view",
      "type": "function",
      "constant": true
    },
    {
      "inputs": [
        {
          "internalType": "address",
          "name": "",
          "type": "address"
        }
      ],
      "name": "lastClock",
      "outputs": [
        {
          "internalType": "uint256",
          "name": "",
          "type": "uint256"
        }
      ],
      "stateMutability": "view",
      "type": "function",
      "constant": true
    },
    {
      "inputs": [],
      "name": "lead",
      "outputs": [
        {
          "internalType": "address",
          "name": "",
          "type": "address"
        }
      ],
      "stateMutability": "view",
      "type": "function",
      "constant": true
    },
    {
      "inputs": [],
      "name": "minimumStakeValue",
      "outputs": [
        {
          "internalType": "uint256",
          "name": "",
          "type": "uint256"
        }
      ],
      "stateMutability": "view",
      "type": "function",
      "constant": true
    },
    {
      "inputs": [],
      "name": "owner",
      "outputs": [
        {
          "internalType": "address",
          "name": "",
          "type": "address"
        }
      ],
      "stateMutability": "view",
      "type": "function",
      "constant": true
    },
    {
      "inputs": [
        {
          "internalType": "address",
          "name": "",
          "type": "address"
        }
      ],
      "name": "referralCount",
      "outputs": [
        {
          "internalType": "uint256",
          "name": "",
          "type": "uint256"
        }
      ],
      "stateMutability": "view",
      "type": "function",
      "constant": true
    },
    {
      "inputs": [
        {
          "internalType": "address",
          "name": "",
          "type": "address"
        }
      ],
      "name": "referralRewards",
      "outputs": [
        {
          "internalType": "uint256",
          "name": "",
          "type": "uint256"
        }
      ],
      "stateMutability": "view",
      "type": "function",
      "constant": true
    },
    {
      "inputs": [],
      "name": "referralTaxAllocation",
      "outputs": [
        {
          "internalType": "uint256",
          "name": "",
          "type": "uint256"
        }
      ],
      "stateMutability": "view",
      "type": "function",
      "constant": true
    },
    {
      "inputs": [
        {
          "internalType": "address",
          "name": "",
          "type": "address"
        }
      ],
      "name": "registered",
      "outputs": [
        {
          "internalType": "bool",
          "name": "",
          "type": "bool"
        }
      ],
      "stateMutability": "view",
      "type": "function",
      "constant": true
    },
    {
      "inputs": [],
      "name": "registrationTax",
      "outputs": [
        {
          "internalType": "uint256",
          "name": "",
          "type": "uint256"
        }
      ],
      "stateMutability": "view",
      "type": "function",
      "constant": true
    },
    {
      "inputs": [],
      "name": "renounceOwnership",
      "outputs": [],
      "stateMutability": "nonpayable",
      "type": "function"
    },
    {
      "inputs": [
        {
          "internalType": "address",
          "name": "",
          "type": "address"
        }
      ],
      "name": "stakeRewards",
      "outputs": [
        {
          "internalType": "uint256",
          "name": "",
          "type": "uint256"
        }
      ],
      "stateMutability": "view",
      "type": "function",
      "constant": true
    },
    {
      "inputs": [
        {
          "internalType": "address",
          "name": "",
          "type": "address"
        }
      ],
      "name": "stakes",
      "outputs": [
        {
          "internalType": "uint256",
          "name": "",
          "type": "uint256"
        }
      ],
      "stateMutability": "view",
      "type": "function",
      "constant": true
    },
    {
      "inputs": [],
      "name": "stakingTaxRate",
      "outputs": [
        {
          "internalType": "uint256",
          "name": "",
          "type": "uint256"
        }
      ],
      "stateMutability": "view",
      "type": "function",
      "constant": true
    },
    {
      "inputs": [],
      "name": "totalStaked",
      "outputs": [
        {
          "internalType": "uint256",
          "name": "",
          "type": "uint256"
        }
      ],
      "stateMutability": "view",
      "type": "function",
      "constant": true
    },
    {
      "inputs": [
        {
          "internalType": "address",
          "name": "newOwner",
          "type": "address"
        }
      ],
      "name": "transferOwnership",
      "outputs": [],
      "stateMutability": "nonpayable",
      "type": "function"
    },
    {
      "inputs": [],
      "name": "unstakingTaxRate",
      "outputs": [
        {
          "internalType": "uint256",
          "name": "",
          "type": "uint256"
        }
      ],
      "stateMutability": "view",
      "type": "function",
      "constant": true
    },
    {
      "inputs": [
        {
          "internalType": "uint256",
          "name": "",
          "type": "uint256"
        }
      ],
      "name": "userIndex",
      "outputs": [
        {
          "internalType": "address",
          "name": "",
          "type": "address"
        }
      ],
      "stateMutability": "view",
      "type": "function",
      "constant": true
    },
    {
      "inputs": [
        {
          "internalType": "uint256",
          "name": "_amount",
          "type": "uint256"
        },
        {
          "internalType": "address",
          "name": "_referrer",
          "type": "address"
        }
      ],
      "name": "registerAndStake",
      "outputs": [],
      "stateMutability": "nonpayable",
      "type": "function"
    },
    {
      "inputs": [
        {
          "internalType": "address",
          "name": "_stakeholder",
          "type": "address"
        }
      ],
      "name": "calculateEarnings",
      "outputs": [
        {
          "internalType": "uint256",
          "name": "",
          "type": "uint256"
        }
      ],
      "stateMutability": "view",
      "type": "function",
      "constant": true
    },
    {
      "inputs": [
        {
          "internalType": "uint256",
          "name": "_amount",
          "type": "uint256"
        }
      ],
      "name": "stake",
      "outputs": [],
      "stateMutability": "nonpayable",
      "type": "function"
    },
    {
      "inputs": [
        {
          "internalType": "uint256",
          "name": "_amount",
          "type": "uint256"
        }
      ],
      "name": "unstake",
      "outputs": [],
      "stateMutability": "nonpayable",
      "type": "function"
    },
    {
      "inputs": [
        {
          "internalType": "address",
          "name": "_address",
          "type": "address"
        }
      ],
      "name": "isStakeholder",
      "outputs": [
        {
          "internalType": "bool",
          "name": "",
          "type": "bool"
        },
        {
          "internalType": "uint256",
          "name": "",
          "type": "uint256"
        }
      ],
      "stateMutability": "view",
      "type": "function",
      "constant": true
    },
    {
      "inputs": [],
      "name": "withdrawEarnings",
      "outputs": [],
      "stateMutability": "nonpayable",
      "type": "function"
    },
    {
      "inputs": [],
      "name": "changeActiveStatus",
      "outputs": [],
      "stateMutability": "nonpayable",
      "type": "function"
    },
    {
      "inputs": [
        {
          "internalType": "uint8",
          "name": "_stakingTaxRate",
          "type": "uint8"
        }
      ],
      "name": "setStakingTaxRate",
      "outputs": [],
      "stateMutability": "nonpayable",
      "type": "function"
    },
    {
      "inputs": [
        {
          "internalType": "uint8",
          "name": "_unstakingTaxRate",
          "type": "uint8"
        }
      ],
      "name": "setUnstakingTaxRate",
      "outputs": [],
      "stateMutability": "nonpayable",
      "type": "function"
    },
    {
      "inputs": [
        {
          "internalType": "uint8",
          "name": "_dailyROI",
          "type": "uint8"
        }
      ],
      "name": "setDailyROI",
      "outputs": [],
      "stateMutability": "nonpayable",
      "type": "function"
    },
    {
      "inputs": [
        {
          "internalType": "uint256",
          "name": "_registrationTax",
          "type": "uint256"
        }
      ],
      "name": "setRegistrationTax",
      "outputs": [],
      "stateMutability": "nonpayable",
      "type": "function"
    },
    {
      "inputs": [
        {
          "internalType": "uint256",
          "name": "_referralTaxAllocation",
          "type": "uint256"
        }
      ],
      "name": "setReferralTaxAllocation",
      "outputs": [],
      "stateMutability": "nonpayable",
      "type": "function"
    },
    {
      "inputs": [
        {
          "internalType": "uint256",
          "name": "_minimumStakeValue",
          "type": "uint256"
        }
      ],
      "name": "setMinimumStakeValue",
      "outputs": [],
      "stateMutability": "nonpayable",
      "type": "function"
    },
    {
      "inputs": [
        {
          "internalType": "address",
          "name": "_address",
          "type": "address"
        },
        {
          "internalType": "uint256",
          "name": "_amount",
          "type": "uint256"
        }
      ],
      "name": "adminWithdraw",
      "outputs": [],
      "stateMutability": "nonpayable",
      "type": "function"
    },
    {
      "inputs": [],
      "name": "supplyPool",
      "outputs": [],
      "stateMutability": "nonpayable",
      "type": "function"
    }
  ],
  "bytecode": "0x60806040526001600a60006101000a81548160ff0219169083151502179055503480156200002c57600080fd5b506040516200463338038062004633833981810160405260e08110156200005257600080fd5b81019080805190602001909291908051906020019092919080519060200190929190805190602001909291908051906020019092919080519060200190929190805190602001909291905050506000620000b1620001e160201b60201c565b9050806000806101000a81548173ffffffffffffffffffffffffffffffffffffffff021916908373ffffffffffffffffffffffffffffffffffffffff1602179055508073ffffffffffffffffffffffffffffffffffffffff16600073ffffffffffffffffffffffffffffffffffffffff167f8be0079c531659141344cd1fd0a4f28419497f9722a3daafe3b4186f6b6457e060405160405180910390a35086600160006101000a81548173ffffffffffffffffffffffffffffffffffffffff021916908373ffffffffffffffffffffffffffffffffffffffff1602179055508560ff166003819055508460ff1660068190555083600560006101000a81548160ff021916908360ff16021790555082600481905550816008819055508060078190555050505050505050620001e9565b600033905090565b61443a80620001f96000396000f3fe608060405234801561001057600080fd5b50600436106101fb5760003560e01c8063817b1cd21161011a578063cc62db5b116100ad578063efad16a81161007c578063efad16a8146107f2578063f24ee7d314610810578063f2fde38b1461085e578063f5c762cb146108a2578063fbfaa24d146108c3576101fb565b8063cc62db5b146106b0578063db74559b146106e1578063e0de0c6814610739578063ef037b9014610791576101fb565b8063b60dbb5b116100e9578063b60dbb5b146105c8578063b73c6ce9146105f6578063c37dfd6e14610600578063c428e11414610658576101fb565b8063817b1cd2146104ee5780638da5cb5b1461050c578063a694fc3a14610540578063b2dd5c071461056e576101fb565b8063401d44821161019257806353aaa63b1161016157806353aaa63b1461041657806370f0f3871461046e578063715018a61461048c578063789c1d3a14610496576101fb565b8063401d44821461033557806346bb0a16146103835780634be4d790146103b75780635292bc6a146103e5576101fb565b806316934fc4116101ce57806316934fc41461026057806318e1fbfc146102b8578063269e3e3a146102d65780632e17de7814610307576101fb565b806301c11d2c14610200578063066936041461020a5780630aca582e1461023857806313c3338414610256575b600080fd5b6102086108e1565b005b6102366004803603602081101561022057600080fd5b810190808035906020019092919050505061100f565b005b6102406110e1565b6040518082815260200191505060405180910390f35b61025e6110e7565b005b6102a26004803603602081101561027657600080fd5b81019080803573ffffffffffffffffffffffffffffffffffffffff1690602001909291905050506111fc565b6040518082815260200191505060405180910390f35b6102c0611214565b6040518082815260200191505060405180910390f35b610305600480360360208110156102ec57600080fd5b81019080803560ff16906020019092919050505061121a565b005b6103336004803603602081101561031d57600080fd5b81019080803590602001909291905050506112ef565b005b6103816004803603604081101561034b57600080fd5b81019080803573ffffffffffffffffffffffffffffffffffffffff16906020019092919080359060200190929190505050611940565b005b61038b611c4c565b604051808273ffffffffffffffffffffffffffffffffffffffff16815260200191505060405180910390f35b6103e3600480360360208110156103cd57600080fd5b8101908080359060200190929190505050611c72565b005b610414600480360360208110156103fb57600080fd5b81019080803560ff169060200190929190505050611d44565b005b6104586004803603602081101561042c57600080fd5b81019080803573ffffffffffffffffffffffffffffffffffffffff1690602001909291905050506120a3565b6040518082815260200191505060405180910390f35b6104766120bb565b6040518082815260200191505060405180910390f35b6104946120c1565b005b6104d8600480360360208110156104ac57600080fd5b81019080803573ffffffffffffffffffffffffffffffffffffffff169060200190929190505050612247565b6040518082815260200191505060405180910390f35b6104f661225f565b6040518082815260200191505060405180910390f35b610514612265565b604051808273ffffffffffffffffffffffffffffffffffffffff16815260200191505060405180910390f35b61056c6004803603602081101561055657600080fd5b810190808035906020019092919050505061228e565b005b6105b06004803603602081101561058457600080fd5b81019080803573ffffffffffffffffffffffffffffffffffffffff16906020019092919050505061292d565b60405180821515815260200191505060405180910390f35b6105f4600480360360208110156105de57600080fd5b810190808035906020019092919050505061294d565b005b6105fe612a1f565b005b61062c6004803603602081101561061657600080fd5b8101908080359060200190929190505050612f2e565b604051808273ffffffffffffffffffffffffffffffffffffffff16815260200191505060405180910390f35b61069a6004803603602081101561066e57600080fd5b81019080803573ffffffffffffffffffffffffffffffffffffffff169060200190929190505050612f61565b6040518082815260200191505060405180910390f35b6106df600480360360208110156106c657600080fd5b81019080803560ff169060200190929190505050612f79565b005b610723600480360360208110156106f757600080fd5b81019080803573ffffffffffffffffffffffffffffffffffffffff16906020019092919050505061304e565b6040518082815260200191505060405180910390f35b61077b6004803603602081101561074f57600080fd5b81019080803573ffffffffffffffffffffffffffffffffffffffff169060200190929190505050613066565b6040518082815260200191505060405180910390f35b6107d3600480360360208110156107a757600080fd5b81019080803573ffffffffffffffffffffffffffffffffffffffff169060200190929190505050613164565b6040518083151581526020018281526020019250505060405180910390f35b6107fa613201565b6040518082815260200191505060405180910390f35b61085c6004803603604081101561082657600080fd5b8101908080359060200190929190803573ffffffffffffffffffffffffffffffffffffffff169060200190929190505050613207565b005b6108a06004803603602081101561087457600080fd5b81019080803573ffffffffffffffffffffffffffffffffffffffff169060200190929190505050613b96565b005b6108aa613da1565b604051808260ff16815260200191505060405180910390f35b6108cb613db4565b6040518082815260200191505060405180910390f35b6108e9613dba565b73ffffffffffffffffffffffffffffffffffffffff1660008054906101000a900473ffffffffffffffffffffffffffffffffffffffff1673ffffffffffffffffffffffffffffffffffffffff16146109a9576040517f08c379a00000000000000000000000000000000000000000000000000000000081526004018080602001828103825260208152602001807f4f776e61626c653a2063616c6c6572206973206e6f7420746865206f776e657281525060200191505060405180910390fd5b600080600090505b600954811015610b9257610b836109fa600b600084815260200190815260200160002060009054906101000a900473ffffffffffffffffffffffffffffffffffffffff16613066565b610b75600c6000600b600087815260200190815260200160002060009054906101000a900473ffffffffffffffffffffffffffffffffffffffff1673ffffffffffffffffffffffffffffffffffffffff1673ffffffffffffffffffffffffffffffffffffffff16815260200190815260200160002054610b67600f6000600b600089815260200190815260200160002060009054906101000a900473ffffffffffffffffffffffffffffffffffffffff1673ffffffffffffffffffffffffffffffffffffffff1673ffffffffffffffffffffffffffffffffffffffff16815260200190815260200160002054600d6000600b60008a815260200190815260200160002060009054906101000a900473ffffffffffffffffffffffffffffffffffffffff1673ffffffffffffffffffffffffffffffffffffffff1673ffffffffffffffffffffffffffffffffffffffff16815260200190815260200160002054613dc290919063ffffffff16565b613dc290919063ffffffff16565b613dc290919063ffffffff16565b915080806001019150506109b1565b50600160009054906101000a900473ffffffffffffffffffffffffffffffffffffffff1673ffffffffffffffffffffffffffffffffffffffff166370a08231306040518263ffffffff1660e01b8152600401808273ffffffffffffffffffffffffffffffffffffffff16815260200191505060206040518083038186803b158015610c1c57600080fd5b505afa158015610c30573d6000803e3d6000fd5b505050506040513d6020811015610c4657600080fd5b81019080805190602001909291905050508111610ccb576040517f08c379a000000000000000000000000000000000000000000000000000000000815260040180806020018281038252601e8152602001807f5374696c6c206861766520656e6f75676820706f6f6c2072657365727665000081525060200191505060405180910390fd5b6000610da3600160009054906101000a900473ffffffffffffffffffffffffffffffffffffffff1673ffffffffffffffffffffffffffffffffffffffff166370a08231306040518263ffffffff1660e01b8152600401808273ffffffffffffffffffffffffffffffffffffffff16815260200191505060206040518083038186803b158015610d5957600080fd5b505afa158015610d6d573d6000803e3d6000fd5b505050506040513d6020811015610d8357600080fd5b810190808051906020019092919050505083613e4a90919063ffffffff16565b905080600160009054906101000a900473ffffffffffffffffffffffffffffffffffffffff1673ffffffffffffffffffffffffffffffffffffffff166370a08231336040518263ffffffff1660e01b8152600401808273ffffffffffffffffffffffffffffffffffffffff16815260200191505060206040518083038186803b158015610e2f57600080fd5b505afa158015610e43573d6000803e3d6000fd5b505050506040513d6020811015610e5957600080fd5b81019080805190602001909291905050501015610ec1576040517f08c379a000000000000000000000000000000000000000000000000000000000815260040180806020018281038252602981526020018061438d6029913960400191505060405180910390fd5b600160009054906101000a900473ffffffffffffffffffffffffffffffffffffffff1673ffffffffffffffffffffffffffffffffffffffff166323b872dd3330846040518463ffffffff1660e01b8152600401808473ffffffffffffffffffffffffffffffffffffffff1681526020018373ffffffffffffffffffffffffffffffffffffffff1681526020018281526020019350505050602060405180830381600087803b158015610f7257600080fd5b505af1158015610f86573d6000803e3d6000fd5b505050506040513d6020811015610f9c57600080fd5b8101908080519060200190929190505050507f4988b6b5c28044f2eb6386f504468e02344c07872faa4440e79284d63aba0bee338242604051808473ffffffffffffffffffffffffffffffffffffffff168152602001838152602001828152602001935050505060405180910390a15050565b611017613dba565b73ffffffffffffffffffffffffffffffffffffffff1660008054906101000a900473ffffffffffffffffffffffffffffffffffffffff1673ffffffffffffffffffffffffffffffffffffffff16146110d7576040517f08c379a00000000000000000000000000000000000000000000000000000000081526004018080602001828103825260208152602001807f4f776e61626c653a2063616c6c6572206973206e6f7420746865206f776e657281525060200191505060405180910390fd5b8060048190555050565b60045481565b6110ef613dba565b73ffffffffffffffffffffffffffffffffffffffff1660008054906101000a900473ffffffffffffffffffffffffffffffffffffffff1673ffffffffffffffffffffffffffffffffffffffff16146111af576040517f08c379a00000000000000000000000000000000000000000000000000000000081526004018080602001828103825260208152602001807f4f776e61626c653a2063616c6c6572206973206e6f7420746865206f776e657281525060200191505060405180910390fd5b6001600a60006101000a81548160ff0219169083151502179055156111e65760001515600a60009054906101000a905050506111fa565b60011515600a60009054906101000a905050505b565b600c6020528060005260406000206000915090505481565b60075481565b611222613dba565b73ffffffffffffffffffffffffffffffffffffffff1660008054906101000a900473ffffffffffffffffffffffffffffffffffffffff1673ffffffffffffffffffffffffffffffffffffffff16146112e2576040517f08c379a00000000000000000000000000000000000000000000000000000000081526004018080602001828103825260208152602001807f4f776e61626c653a2063616c6c6572206973206e6f7420746865206f776e657281525060200191505060405180910390fd5b8060ff1660038190555050565b60011515601160003373ffffffffffffffffffffffffffffffffffffffff1673ffffffffffffffffffffffffffffffffffffffff16815260200190815260200160002060009054906101000a900460ff161515146113b5576040517f08c379a00000000000000000000000000000000000000000000000000000000081526004018080602001828103825260198152602001807f5374616b6572206d75737420626520726567697374657265640000000000000081525060200191505060405180910390fd5b600c60003373ffffffffffffffffffffffffffffffffffffffff1673ffffffffffffffffffffffffffffffffffffffff1681526020019081526020016000205481111580156114045750600081115b611476576040517f08c379a000000000000000000000000000000000000000000000000000000000815260040180806020018281038252601f8152602001807f496e73756666696369656e742062616c616e636520746f20756e7374616b650081525060200191505060405180910390fd5b60006114a16103e861149384600654613e9490919063ffffffff16565b613f1a90919063ffffffff16565b905060006114b88284613e4a90919063ffffffff16565b905060006115796114c833613066565b61156b8461155d600f60003373ffffffffffffffffffffffffffffffffffffffff1673ffffffffffffffffffffffffffffffffffffffff16815260200190815260200160002054600d60003373ffffffffffffffffffffffffffffffffffffffff1673ffffffffffffffffffffffffffffffffffffffff16815260200190815260200160002054613dc290919063ffffffff16565b613dc290919063ffffffff16565b613dc290919063ffffffff16565b9050600160009054906101000a900473ffffffffffffffffffffffffffffffffffffffff1673ffffffffffffffffffffffffffffffffffffffff1663a9059cbb33836040518363ffffffff1660e01b8152600401808373ffffffffffffffffffffffffffffffffffffffff16815260200182815260200192505050602060405180830381600087803b15801561160e57600080fd5b505af1158015611622573d6000803e3d6000fd5b505050506040513d602081101561163857600080fd5b81019080805190602001909291905050505061169c84600c60003373ffffffffffffffffffffffffffffffffffffffff1673ffffffffffffffffffffffffffffffffffffffff16815260200190815260200160002054613e4a90919063ffffffff16565b600c60003373ffffffffffffffffffffffffffffffffffffffff1673ffffffffffffffffffffffffffffffffffffffff168152602001908152602001600020819055506000600d60003373ffffffffffffffffffffffffffffffffffffffff1673ffffffffffffffffffffffffffffffffffffffff168152602001908152602001600020819055506000600f60003373ffffffffffffffffffffffffffffffffffffffff1673ffffffffffffffffffffffffffffffffffffffff168152602001908152602001600020819055506000600e60003373ffffffffffffffffffffffffffffffffffffffff1673ffffffffffffffffffffffffffffffffffffffff16815260200190815260200160002081905550600061181762015180611809601060003373ffffffffffffffffffffffffffffffffffffffff1673ffffffffffffffffffffffffffffffffffffffff1681526020019081526020016000205442613e4a90919063ffffffff16565b613f6490919063ffffffff16565b905061182c8142613e4a90919063ffffffff16565b601060003373ffffffffffffffffffffffffffffffffffffffff1673ffffffffffffffffffffffffffffffffffffffff1681526020019081526020016000208190555061188485600254613e4a90919063ffffffff16565b6002819055506000600c60003373ffffffffffffffffffffffffffffffffffffffff1673ffffffffffffffffffffffffffffffffffffffff1681526020019081526020016000205414156118dc576118db33613fae565b5b7fefe5e683dfe58f596b38874c815bc9599676515f5e641a3305c40aba31c822a7338686604051808473ffffffffffffffffffffffffffffffffffffffff168152602001838152602001828152602001935050505060405180910390a15050505050565b611948613dba565b73ffffffffffffffffffffffffffffffffffffffff1660008054906101000a900473ffffffffffffffffffffffffffffffffffffffff1673ffffffffffffffffffffffffffffffffffffffff1614611a08576040517f08c379a00000000000000000000000000000000000000000000000000000000081526004018080602001828103825260208152602001807f4f776e61626c653a2063616c6c6572206973206e6f7420746865206f776e657281525060200191505060405180910390fd5b80600160009054906101000a900473ffffffffffffffffffffffffffffffffffffffff1673ffffffffffffffffffffffffffffffffffffffff166370a08231306040518263ffffffff1660e01b8152600401808273ffffffffffffffffffffffffffffffffffffffff16815260200191505060206040518083038186803b158015611a9257600080fd5b505afa158015611aa6573d6000803e3d6000fd5b505050506040513d6020811015611abc57600080fd5b81019080805190602001909291905050501015611b24576040517f08c379a000000000000000000000000000000000000000000000000000000000815260040180806020018281038252602b81526020018061430a602b913960400191505060405180910390fd5b600160009054906101000a900473ffffffffffffffffffffffffffffffffffffffff1673ffffffffffffffffffffffffffffffffffffffff1663a9059cbb83836040518363ffffffff1660e01b8152600401808373ffffffffffffffffffffffffffffffffffffffff16815260200182815260200192505050602060405180830381600087803b158015611bb757600080fd5b505af1158015611bcb573d6000803e3d6000fd5b505050506040513d6020811015611be157600080fd5b8101908080519060200190929190505050507fefbfe3c015941f3419cd0c7f713fd74c6874d0da2d765adc7f700370ccd5ba5c8282604051808373ffffffffffffffffffffffffffffffffffffffff1681526020018281526020019250505060405180910390a15050565b600160009054906101000a900473ffffffffffffffffffffffffffffffffffffffff1681565b611c7a613dba565b73ffffffffffffffffffffffffffffffffffffffff1660008054906101000a900473ffffffffffffffffffffffffffffffffffffffff1673ffffffffffffffffffffffffffffffffffffffff1614611d3a576040517f08c379a00000000000000000000000000000000000000000000000000000000081526004018080602001828103825260208152602001807f4f776e61626c653a2063616c6c6572206973206e6f7420746865206f776e657281525060200191505060405180910390fd5b8060078190555050565b611d4c613dba565b73ffffffffffffffffffffffffffffffffffffffff1660008054906101000a900473ffffffffffffffffffffffffffffffffffffffff1673ffffffffffffffffffffffffffffffffffffffff1614611e0c576040517f08c379a00000000000000000000000000000000000000000000000000000000081526004018080602001828103825260208152602001807f4f776e61626c653a2063616c6c6572206973206e6f7420746865206f776e657281525060200191505060405180910390fd5b60005b60095481101561208457611ed9611e58600b600084815260200190815260200160002060009054906101000a900473ffffffffffffffffffffffffffffffffffffffff16613066565b600d6000600b600086815260200190815260200160002060009054906101000a900473ffffffffffffffffffffffffffffffffffffffff1673ffffffffffffffffffffffffffffffffffffffff1673ffffffffffffffffffffffffffffffffffffffff16815260200190815260200160002054613dc290919063ffffffff16565b600d6000600b600085815260200190815260200160002060009054906101000a900473ffffffffffffffffffffffffffffffffffffffff1673ffffffffffffffffffffffffffffffffffffffff1673ffffffffffffffffffffffffffffffffffffffff168152602001908152602001600020819055506000611feb62015180611fdd60106000600b600088815260200190815260200160002060009054906101000a900473ffffffffffffffffffffffffffffffffffffffff1673ffffffffffffffffffffffffffffffffffffffff1673ffffffffffffffffffffffffffffffffffffffff1681526020019081526020016000205442613e4a90919063ffffffff16565b613f6490919063ffffffff16565b90506120008142613e4a90919063ffffffff16565b60106000600b600086815260200190815260200160002060009054906101000a900473ffffffffffffffffffffffffffffffffffffffff1673ffffffffffffffffffffffffffffffffffffffff1673ffffffffffffffffffffffffffffffffffffffff16815260200190815260200160002081905550508080600101915050611e0f565b5080600560006101000a81548160ff021916908360ff16021790555050565b600f6020528060005260406000206000915090505481565b60035481565b6120c9613dba565b73ffffffffffffffffffffffffffffffffffffffff1660008054906101000a900473ffffffffffffffffffffffffffffffffffffffff1673ffffffffffffffffffffffffffffffffffffffff1614612189576040517f08c379a00000000000000000000000000000000000000000000000000000000081526004018080602001828103825260208152602001807f4f776e61626c653a2063616c6c6572206973206e6f7420746865206f776e657281525060200191505060405180910390fd5b600073ffffffffffffffffffffffffffffffffffffffff1660008054906101000a900473ffffffffffffffffffffffffffffffffffffffff1673ffffffffffffffffffffffffffffffffffffffff167f8be0079c531659141344cd1fd0a4f28419497f9722a3daafe3b4186f6b6457e060405160405180910390a360008060006101000a81548173ffffffffffffffffffffffffffffffffffffffff021916908373ffffffffffffffffffffffffffffffffffffffff160217905550565b60106020528060005260406000206000915090505481565b60025481565b60008060009054906101000a900473ffffffffffffffffffffffffffffffffffffffff16905090565b60011515601160003373ffffffffffffffffffffffffffffffffffffffff1673ffffffffffffffffffffffffffffffffffffffff16815260200190815260200160002060009054906101000a900460ff16151514612354576040517f08c379a00000000000000000000000000000000000000000000000000000000081526004018080602001828103825260198152602001807f5374616b6572206d75737420626520726567697374657265640000000000000081525060200191505060405180910390fd5b60011515600a60009054906101000a900460ff161515146123c0576040517f08c379a00000000000000000000000000000000000000000000000000000000081526004018080602001828103825260238152602001806142c66023913960400191505060405180910390fd5b60075481101561241b576040517f08c379a00000000000000000000000000000000000000000000000000000000081526004018080602001828103825260248152602001806143e16024913960400191505060405180910390fd5b80600160009054906101000a900473ffffffffffffffffffffffffffffffffffffffff1673ffffffffffffffffffffffffffffffffffffffff166370a08231336040518263ffffffff1660e01b8152600401808273ffffffffffffffffffffffffffffffffffffffff16815260200191505060206040518083038186803b1580156124a557600080fd5b505afa1580156124b9573d6000803e3d6000fd5b505050506040513d60208110156124cf57600080fd5b81019080805190602001909291905050501015612537576040517f08c379a00000000000000000000000000000000000000000000000000000000081526004018080602001828103825260218152602001806142e96021913960400191505060405180910390fd5b600160009054906101000a900473ffffffffffffffffffffffffffffffffffffffff1673ffffffffffffffffffffffffffffffffffffffff166323b872dd3330846040518463ffffffff1660e01b8152600401808473ffffffffffffffffffffffffffffffffffffffff1681526020018373ffffffffffffffffffffffffffffffffffffffff1681526020018281526020019350505050602060405180830381600087803b1580156125e857600080fd5b505af11580156125fc573d6000803e3d6000fd5b505050506040513d602081101561261257600080fd5b8101908080519060200190929190505050612678576040517f08c379a000000000000000000000000000000000000000000000000000000000815260040180806020018281038252602b8152602001806143b6602b913960400191505060405180910390fd5b60006126a36103e861269584600354613e9490919063ffffffff16565b613f1a90919063ffffffff16565b905060006126ba8284613e4a90919063ffffffff16565b90506126d181600254613dc290919063ffffffff16565b6002819055506127316126e333613066565b600d60003373ffffffffffffffffffffffffffffffffffffffff1673ffffffffffffffffffffffffffffffffffffffff16815260200190815260200160002054613dc290919063ffffffff16565b600d60003373ffffffffffffffffffffffffffffffffffffffff1673ffffffffffffffffffffffffffffffffffffffff1681526020019081526020016000208190555060006127dd620151806127cf601060003373ffffffffffffffffffffffffffffffffffffffff1673ffffffffffffffffffffffffffffffffffffffff1681526020019081526020016000205442613e4a90919063ffffffff16565b613f6490919063ffffffff16565b90506127f28142613e4a90919063ffffffff16565b601060003373ffffffffffffffffffffffffffffffffffffffff1673ffffffffffffffffffffffffffffffffffffffff1681526020019081526020016000208190555061288782600c60003373ffffffffffffffffffffffffffffffffffffffff1673ffffffffffffffffffffffffffffffffffffffff16815260200190815260200160002054613dc290919063ffffffff16565b600c60003373ffffffffffffffffffffffffffffffffffffffff1673ffffffffffffffffffffffffffffffffffffffff168152602001908152602001600020819055507ffeb41de252fbc1de97d95a27ed44f6044e66e11df6ca319955eef830b598fdb4338385604051808473ffffffffffffffffffffffffffffffffffffffff168152602001838152602001828152602001935050505060405180910390a150505050565b60116020528060005260406000206000915054906101000a900460ff1681565b612955613dba565b73ffffffffffffffffffffffffffffffffffffffff1660008054906101000a900473ffffffffffffffffffffffffffffffffffffffff1673ffffffffffffffffffffffffffffffffffffffff1614612a15576040517f08c379a00000000000000000000000000000000000000000000000000000000081526004018080602001828103825260208152602001807f4f776e61626c653a2063616c6c6572206973206e6f7420746865206f776e657281525060200191505060405180910390fd5b8060088190555050565b60011515601160003373ffffffffffffffffffffffffffffffffffffffff1673ffffffffffffffffffffffffffffffffffffffff16815260200190815260200160002060009054906101000a900460ff16151514612ae5576040517f08c379a00000000000000000000000000000000000000000000000000000000081526004018080602001828103825260198152602001807f5374616b6572206d75737420626520726567697374657265640000000000000081525060200191505060405180910390fd5b60011515600a60009054906101000a900460ff16151514612b51576040517f08c379a00000000000000000000000000000000000000000000000000000000081526004018080602001828103825260238152602001806142c66023913960400191505060405180910390fd5b6000612bfe612b5f33613066565b612bf0600d60003373ffffffffffffffffffffffffffffffffffffffff1673ffffffffffffffffffffffffffffffffffffffff16815260200190815260200160002054600f60003373ffffffffffffffffffffffffffffffffffffffff1673ffffffffffffffffffffffffffffffffffffffff16815260200190815260200160002054613dc290919063ffffffff16565b613dc290919063ffffffff16565b905060008111612c76576040517f08c379a00000000000000000000000000000000000000000000000000000000081526004018080602001828103825260158152602001807f4e6f2072657761726420746f207769746864726177000000000000000000000081525060200191505060405180910390fd5b600160009054906101000a900473ffffffffffffffffffffffffffffffffffffffff1673ffffffffffffffffffffffffffffffffffffffff1663a9059cbb33836040518363ffffffff1660e01b8152600401808373ffffffffffffffffffffffffffffffffffffffff16815260200182815260200192505050602060405180830381600087803b158015612d0957600080fd5b505af1158015612d1d573d6000803e3d6000fd5b505050506040513d6020811015612d3357600080fd5b8101908080519060200190929190505050506000600d60003373ffffffffffffffffffffffffffffffffffffffff1673ffffffffffffffffffffffffffffffffffffffff168152602001908152602001600020819055506000600f60003373ffffffffffffffffffffffffffffffffffffffff1673ffffffffffffffffffffffffffffffffffffffff168152602001908152602001600020819055506000600e60003373ffffffffffffffffffffffffffffffffffffffff1673ffffffffffffffffffffffffffffffffffffffff168152602001908152602001600020819055506000612e7d62015180612e6f601060003373ffffffffffffffffffffffffffffffffffffffff1673ffffffffffffffffffffffffffffffffffffffff1681526020019081526020016000205442613e4a90919063ffffffff16565b613f6490919063ffffffff16565b9050612e928142613e4a90919063ffffffff16565b601060003373ffffffffffffffffffffffffffffffffffffffff1673ffffffffffffffffffffffffffffffffffffffff168152602001908152602001600020819055507fefbfe3c015941f3419cd0c7f713fd74c6874d0da2d765adc7f700370ccd5ba5c3383604051808373ffffffffffffffffffffffffffffffffffffffff1681526020018281526020019250505060405180910390a15050565b600b6020528060005260406000206000915054906101000a900473ffffffffffffffffffffffffffffffffffffffff1681565b600d6020528060005260406000206000915090505481565b612f81613dba565b73ffffffffffffffffffffffffffffffffffffffff1660008054906101000a900473ffffffffffffffffffffffffffffffffffffffff1673ffffffffffffffffffffffffffffffffffffffff1614613041576040517f08c379a00000000000000000000000000000000000000000000000000000000081526004018080602001828103825260208152602001807f4f776e61626c653a2063616c6c6572206973206e6f7420746865206f776e657281525060200191505060405180910390fd5b8060ff1660068190555050565b600e6020528060005260406000206000915090505481565b6000806130d0620151806130c2601060008773ffffffffffffffffffffffffffffffffffffffff1673ffffffffffffffffffffffffffffffffffffffff1681526020019081526020016000205442613e4a90919063ffffffff16565b613f1a90919063ffffffff16565b905061315c61271061314e83613140600560009054906101000a900460ff1660ff16600c60008a73ffffffffffffffffffffffffffffffffffffffff1673ffffffffffffffffffffffffffffffffffffffff16815260200190815260200160002054613e9490919063ffffffff16565b613e9490919063ffffffff16565b613f1a90919063ffffffff16565b915050919050565b60008060005b6009548110156131f357600b600082815260200190815260200160002060009054906101000a900473ffffffffffffffffffffffffffffffffffffffff1673ffffffffffffffffffffffffffffffffffffffff168473ffffffffffffffffffffffffffffffffffffffff1614156131e85760018192509250506131fc565b60018101905061316a565b50600080915091505b915091565b60085481565b60001515601160003373ffffffffffffffffffffffffffffffffffffffff1673ffffffffffffffffffffffffffffffffffffffff16815260200190815260200160002060009054906101000a900460ff161515146132cd576040517f08c379a000000000000000000000000000000000000000000000000000000000815260040180806020018281038252601c8152602001807f5374616b657220697320616c726561647920726567697374657265640000000081525060200191505060405180910390fd5b60011515600a60009054906101000a900460ff16151514613339576040517f08c379a00000000000000000000000000000000000000000000000000000000081526004018080602001828103825260238152602001806142c66023913960400191505060405180910390fd5b8073ffffffffffffffffffffffffffffffffffffffff163373ffffffffffffffffffffffffffffffffffffffff1614156133db576040517f08c379a00000000000000000000000000000000000000000000000000000000081526004018080602001828103825260118152602001807f43616e6e6f742072656665722073656c6600000000000000000000000000000081525060200191505060405180910390fd5b601160008273ffffffffffffffffffffffffffffffffffffffff1673ffffffffffffffffffffffffffffffffffffffff16815260200190815260200160002060009054906101000a900460ff168061345f57508073ffffffffffffffffffffffffffffffffffffffff16600073ffffffffffffffffffffffffffffffffffffffff16145b6134d1576040517f08c379a000000000000000000000000000000000000000000000000000000000815260040180806020018281038252601b8152602001807f5265666572726572206d7573742062652072656769737465726564000000000081525060200191505060405180910390fd5b81600160009054906101000a900473ffffffffffffffffffffffffffffffffffffffff1673ffffffffffffffffffffffffffffffffffffffff166370a08231336040518263ffffffff1660e01b8152600401808273ffffffffffffffffffffffffffffffffffffffff16815260200191505060206040518083038186803b15801561355b57600080fd5b505afa15801561356f573d6000803e3d6000fd5b505050506040513d602081101561358557600080fd5b810190808051906020019092919050505010156135ed576040517f08c379a00000000000000000000000000000000000000000000000000000000081526004018080602001828103825260218152602001806142e96021913960400191505060405180910390fd5b600160009054906101000a900473ffffffffffffffffffffffffffffffffffffffff1673ffffffffffffffffffffffffffffffffffffffff166323b872dd3330856040518463ffffffff1660e01b8152600401808473ffffffffffffffffffffffffffffffffffffffff1681526020018373ffffffffffffffffffffffffffffffffffffffff1681526020018281526020019350505050602060405180830381600087803b15801561369e57600080fd5b505af11580156136b2573d6000803e3d6000fd5b505050506040513d60208110156136c857600080fd5b810190808051906020019092919050505061372e576040517f08c379a000000000000000000000000000000000000000000000000000000000815260040180806020018281038252602b8152602001806143b6602b913960400191505060405180910390fd5b613745600754600454613dc290919063ffffffff16565b82101561379d576040517f08c379a00000000000000000000000000000000000000000000000000000000081526004018080602001828103825260378152602001806143566037913960400191505060405180910390fd5b60006137c960646137bb600854600454613e9490919063ffffffff16565b613f1a90919063ffffffff16565b905060006137e260045485613e4a90919063ffffffff16565b9050600061380f6103e861380184600354613e9490919063ffffffff16565b613f1a90919063ffffffff16565b9050600073ffffffffffffffffffffffffffffffffffffffff168473ffffffffffffffffffffffffffffffffffffffff161461392a57600e60008573ffffffffffffffffffffffffffffffffffffffff1673ffffffffffffffffffffffffffffffffffffffff168152602001908152602001600020600081548092919060010191905055506138e683600f60008773ffffffffffffffffffffffffffffffffffffffff1673ffffffffffffffffffffffffffffffffffffffff16815260200190815260200160002054613dc290919063ffffffff16565b600f60008673ffffffffffffffffffffffffffffffffffffffff1673ffffffffffffffffffffffffffffffffffffffff168152602001908152602001600020819055505b61398e8161398084600c60003373ffffffffffffffffffffffffffffffffffffffff1673ffffffffffffffffffffffffffffffffffffffff16815260200190815260200160002054613dc290919063ffffffff16565b613e4a90919063ffffffff16565b600c60003373ffffffffffffffffffffffffffffffffffffffff1673ffffffffffffffffffffffffffffffffffffffff168152602001908152602001600020819055506139f8816139ea84600254613dc290919063ffffffff16565b613e4a90919063ffffffff16565b6002819055506001601160003373ffffffffffffffffffffffffffffffffffffffff1673ffffffffffffffffffffffffffffffffffffffff16815260200190815260200160002060006101000a81548160ff02191690831515021790555033600b6000600954815260200190815260200160002060006101000a81548173ffffffffffffffffffffffffffffffffffffffff021916908373ffffffffffffffffffffffffffffffffffffffff16021790555060096000815480929190600101919050555042601060003373ffffffffffffffffffffffffffffffffffffffff1673ffffffffffffffffffffffffffffffffffffffff168152602001908152602001600020819055507f2aef494423269f61b2dd75f1f1e289ef00d20b5a68bd5a6740c518cddd9a865b3386613b3884600454613dc290919063ffffffff16565b87604051808573ffffffffffffffffffffffffffffffffffffffff1681526020018481526020018381526020018273ffffffffffffffffffffffffffffffffffffffff16815260200194505050505060405180910390a15050505050565b613b9e613dba565b73ffffffffffffffffffffffffffffffffffffffff1660008054906101000a900473ffffffffffffffffffffffffffffffffffffffff1673ffffffffffffffffffffffffffffffffffffffff1614613c5e576040517f08c379a00000000000000000000000000000000000000000000000000000000081526004018080602001828103825260208152602001807f4f776e61626c653a2063616c6c6572206973206e6f7420746865206f776e657281525060200191505060405180910390fd5b600073ffffffffffffffffffffffffffffffffffffffff168173ffffffffffffffffffffffffffffffffffffffff161415613ce4576040517f08c379a00000000000000000000000000000000000000000000000000000000081526004018080602001828103825260268152602001806142a06026913960400191505060405180910390fd5b8073ffffffffffffffffffffffffffffffffffffffff1660008054906101000a900473ffffffffffffffffffffffffffffffffffffffff1673ffffffffffffffffffffffffffffffffffffffff167f8be0079c531659141344cd1fd0a4f28419497f9722a3daafe3b4186f6b6457e060405160405180910390a3806000806101000a81548173ffffffffffffffffffffffffffffffffffffffff021916908373ffffffffffffffffffffffffffffffffffffffff16021790555050565b600560009054906101000a900460ff1681565b60065481565b600033905090565b600080828401905083811015613e40576040517f08c379a000000000000000000000000000000000000000000000000000000000815260040180806020018281038252601b8152602001807f536166654d6174683a206164646974696f6e206f766572666c6f77000000000081525060200191505060405180910390fd5b8091505092915050565b6000613e8c83836040518060400160405280601e81526020017f536166654d6174683a207375627472616374696f6e206f766572666c6f770000815250614058565b905092915050565b600080831415613ea75760009050613f14565b6000828402905082848281613eb857fe5b0414613f0f576040517f08c379a00000000000000000000000000000000000000000000000000000000081526004018080602001828103825260218152602001806143356021913960400191505060405180910390fd5b809150505b92915050565b6000613f5c83836040518060400160405280601a81526020017f536166654d6174683a206469766973696f6e206279207a65726f000000000000815250614118565b905092915050565b6000613fa683836040518060400160405280601881526020017f536166654d6174683a206d6f64756c6f206279207a65726f00000000000000008152506141de565b905092915050565b6000601160003373ffffffffffffffffffffffffffffffffffffffff1673ffffffffffffffffffffffffffffffffffffffff16815260200190815260200160002060006101000a81548160ff02191690831515021790555060008061401283613164565b91509150811561405357600b600082815260200190815260200160002060006101000a81549073ffffffffffffffffffffffffffffffffffffffff02191690555b505050565b6000838311158290614105576040517f08c379a00000000000000000000000000000000000000000000000000000000081526004018080602001828103825283818151815260200191508051906020019080838360005b838110156140ca5780820151818401526020810190506140af565b50505050905090810190601f1680156140f75780820380516001836020036101000a031916815260200191505b509250505060405180910390fd5b5060008385039050809150509392505050565b600080831182906141c4576040517f08c379a00000000000000000000000000000000000000000000000000000000081526004018080602001828103825283818151815260200191508051906020019080838360005b8381101561418957808201518184015260208101905061416e565b50505050905090810190601f1680156141b65780820380516001836020036101000a031916815260200191505b509250505060405180910390fd5b5060008385816141d057fe5b049050809150509392505050565b600080831415829061428b576040517f08c379a00000000000000000000000000000000000000000000000000000000081526004018080602001828103825283818151815260200191508051906020019080838360005b83811015614250578082015181840152602081019050614235565b50505050905090810190601f16801561427d5780820380516001836020036101000a031916815260200191505b509250505060405180910390fd5b5082848161429557fe5b069050939250505056fe4f776e61626c653a206e6577206f776e657220697320746865207a65726f2061646472657373536d61727420636f6e747261637420697320637572656e746c7920696e6163746976654d757374206861766520656e6f7567682062616c616e636520746f207374616b65496e73756666696369656e74204c4541442062616c616e636520696e20736d61727420636f6e7472616374536166654d6174683a206d756c7469706c69636174696f6e206f766572666c6f774d7573742073656e64206174206c6561737420656e6f756768204c45414420746f2070617920726567697374726174696f6e206665652e496e73756666696369656e74204c4541442062616c616e636520696e206f776e65722077616c6c65745374616b65206661696c65642064756520746f206661696c656420616d6f756e74207472616e736665722e416d6f756e742069732062656c6f77206d696e696d756d207374616b652076616c75652ea2646970667358221220aaaea5fcf967c92b35cacd62bc308538f85431802d61d0e7d80e2a9af6d78d0564736f6c634300060c0033",
  "source": "//\"SPDX-License-Identifier: UNLICENSED\"\r\n\r\npragma solidity ^0.6.0;\r\n\r\nimport '@openzeppelin/contracts/math/SafeMath.sol';\r\n\r\nimport '@openzeppelin/contracts/token/ERC20/IERC20.sol';\r\n\r\nimport '@openzeppelin/contracts/access/Ownable.sol';\r\n\r\ncontract LeadStake is Ownable {\r\n    \r\n    //initializing safe computations\r\n    using SafeMath for uint;\r\n\r\n    //LEAD contract address\r\n    address public lead;\r\n    //total amount of staked lead\r\n    uint public totalStaked;\r\n    //tax rate for staking in percentage\r\n    uint public stakingTaxRate;                     //10 = 1%\r\n    //tax amount for registration\r\n    uint public registrationTax;\r\n    //daily return of investment in percentage\r\n    uint8 public dailyROI;                         //100 = 1%\r\n    //tax rate for unstaking in percentage \r\n    uint public unstakingTaxRate;                   //10 = 1%\r\n    //minimum stakeable LEAD \r\n    uint public minimumStakeValue;\r\n    //referral allocation from the registration tax\r\n    uint public referralTaxAllocation;\r\n    //stakeholders' indexes\r\n    uint index;\r\n    //pause mechanism\r\n    bool active = true;\r\n    //mapping of stakeholders' indexes to addresses\r\n    mapping(uint => address) public userIndex;\r\n    //mapping of stakeholders' address to number of stakes\r\n    mapping(address => uint) public stakes;\r\n    //mapping of stakeholders' address to stake rewards\r\n    mapping(address => uint) public stakeRewards;\r\n    //mapping of stakeholders' address to number of referrals \r\n    mapping(address => uint) public referralCount;\r\n    //mapping of stakeholders' address to referral rewards earned \r\n    mapping(address => uint) public referralRewards;\r\n    //mapping of stakeholder's address to last transaction time for reward calculation\r\n    mapping(address => uint) public lastClock;\r\n    //mapping of addresses to verify registered stakers\r\n    mapping(address => bool) public registered;\r\n    \r\n    //Events\r\n    event OnWithdrawal(address sender, uint amount);\r\n    event OnStake(address sender, uint amount, uint tax);\r\n    event OnUnstake(address sender, uint amount, uint tax);\r\n    event OnDeposit(address sender, uint amount, uint time);\r\n    event OnRegisterAndStake(address stakeholder, uint amount, uint totalTax , address _referrer);\r\n    \r\n    /**\r\n     * @dev Sets the initial values\r\n     */\r\n    constructor(\r\n        address _token,\r\n        uint8 _stakingTaxRate, \r\n        uint8 _unstakingTaxRate,\r\n        uint8 _dailyROI,\r\n        uint _registrationTax,\r\n        uint _referralTaxAllocation,\r\n        uint _minimumStakeValue) public {\r\n            \r\n        //set initial state variables\r\n        lead = _token;\r\n        stakingTaxRate = _stakingTaxRate;\r\n        unstakingTaxRate = _unstakingTaxRate;\r\n        dailyROI = _dailyROI;\r\n        registrationTax = _registrationTax;\r\n        referralTaxAllocation = _referralTaxAllocation;\r\n        minimumStakeValue = _minimumStakeValue;\r\n    }\r\n    \r\n    //exclusive access for registered address\r\n    modifier onlyRegistered() {\r\n        require(registered[msg.sender] == true, \"Staker must be registered\");\r\n        _;\r\n    }\r\n    \r\n    //exclusive access for unregistered address\r\n    modifier onlyUnregistered() {\r\n        require(registered[msg.sender] == false, \"Staker is already registered\");\r\n        _;\r\n    }\r\n        \r\n    //make sure contract is active\r\n    modifier whenActive() {\r\n        require(active == true, \"Smart contract is curently inactive\");\r\n        _;\r\n    }\r\n    \r\n    /**\r\n     * registers and creates stakes for new stakeholders\r\n     * deducts the registration tax and staking tax\r\n     * calculates refferal bonus from the registration tax and sends it to the _referrer if there is one\r\n     * transfers LEAD from sender's address into the smart contract\r\n     * Emits an {OnRegisterAndStake} event..\r\n     */\r\n    function registerAndStake(uint _amount, address _referrer) external onlyUnregistered() whenActive() {\r\n        //makes sure user is not the referrer\r\n        require(msg.sender != _referrer, \"Cannot refer self\");\r\n        //makes sure referrer is registered already\r\n        require(registered[_referrer] || address(0x0) == _referrer, \"Referrer must be registered\");\r\n        //makes sure user has enough amount\r\n        require(IERC20(lead).balanceOf(msg.sender) >= _amount, \"Must have enough balance to stake\");\r\n        //makes sure smart contract transfers LEAD from user\r\n        require(IERC20(lead).transferFrom(msg.sender, address(this), _amount), \"Stake failed due to failed amount transfer.\");\r\n        //makes sure amount is more than the registration fee and the minimum deposit\r\n        require(_amount >= registrationTax.add(minimumStakeValue), \"Must send at least enough LEAD to pay registration fee.\");\r\n        //calculates referral bonus\r\n        uint referralBonus = (registrationTax.mul(referralTaxAllocation)).div(100);\r\n        //calculates final amount after deducting registration tax\r\n        uint finalAmount = _amount.sub(registrationTax);\r\n        //calculates staking tax on final calculated amount\r\n        uint stakingTax = (stakingTaxRate.mul(finalAmount)).div(1000);\r\n        //conditional statement if user registers with referrer \r\n        if(_referrer != address(0x0)) {\r\n            //increase referral count of referrer\r\n            referralCount[_referrer]++;\r\n            //add referral bonus to referrer\r\n            referralRewards[_referrer] = referralRewards[_referrer].add(referralBonus);\r\n        } \r\n        //update the user's stakes deducting the staking tax\r\n        stakes[msg.sender] = stakes[msg.sender].add(finalAmount).sub(stakingTax);\r\n        //update the total staked LEAD amount in the pool\r\n        totalStaked = totalStaked.add(finalAmount).sub(stakingTax);\r\n        //register user and add to stakeholders list\r\n        registered[msg.sender] = true;\r\n        userIndex[index] = msg.sender;\r\n        index++;\r\n        //mark the transaction date\r\n        lastClock[msg.sender] = now;\r\n        //emit event\r\n        emit OnRegisterAndStake(msg.sender, _amount, registrationTax.add(stakingTax), _referrer);\r\n    }\r\n    \r\n    //calculates stakeholders latest unclaimed earnings \r\n    function calculateEarnings(address _stakeholder) public view returns(uint) {\r\n        //records the number of days between the last payout time and now\r\n        uint activeDays = (now.sub(lastClock[_stakeholder])).div(86400);\r\n        //returns earnings based on daily ROI and active days\r\n        return (stakes[_stakeholder].mul(dailyROI).mul(activeDays)).div(10000);\r\n    }\r\n    \r\n    /**\r\n     * creates stakes for already registered stakeholders\r\n     * deducts the staking tax from _amount inputted\r\n     * registers the remainder in the stakes of the sender\r\n     * records the previous earnings before updated stakes \r\n     * Emits an {OnStake} event\r\n     */\r\n    function stake(uint _amount) external onlyRegistered() whenActive() {\r\n        //makes sure stakeholder does not stake below the minimum\r\n        require(_amount >= minimumStakeValue, \"Amount is below minimum stake value.\");\r\n        //makes sure stakeholder has enough balance\r\n        require(IERC20(lead).balanceOf(msg.sender) >= _amount, \"Must have enough balance to stake\");\r\n        //makes sure smart contract transfers LEAD from user\r\n        require(IERC20(lead).transferFrom(msg.sender, address(this), _amount), \"Stake failed due to failed amount transfer.\");\r\n        //calculates staking tax on amount\r\n        uint stakingTax = (stakingTaxRate.mul(_amount)).div(1000);\r\n        //calculates amount after tax\r\n        uint afterTax = _amount.sub(stakingTax);\r\n        //update the total staked LEAD amount in the pool\r\n        totalStaked = totalStaked.add(afterTax);\r\n        //adds earnings current earnings to stakeRewards\r\n        stakeRewards[msg.sender] = stakeRewards[msg.sender].add(calculateEarnings(msg.sender));\r\n        //calculates unpaid period\r\n        uint remainder = (now.sub(lastClock[msg.sender])).mod(86400);\r\n        //mark transaction date with remainder\r\n        lastClock[msg.sender] = now.sub(remainder);\r\n        //updates stakeholder's stakes\r\n        stakes[msg.sender] = stakes[msg.sender].add(afterTax);\r\n        //emit event\r\n        emit OnStake(msg.sender, afterTax, stakingTax);\r\n    }\r\n    \r\n    \r\n    /**\r\n     * removes '_amount' stakes for already registered stakeholders\r\n     * deducts the unstaking tax from '_amount'\r\n     * transfers the sum of the remainder, stake rewards, referral rewards, and current eanrings to the sender \r\n     * deregisters stakeholder if all the stakes are removed\r\n     * Emits an {OnStake} event\r\n     */\r\n    function unstake(uint _amount) external onlyRegistered() {\r\n        //makes sure _amount is not more than stake balance\r\n        require(_amount <= stakes[msg.sender] && _amount > 0, 'Insufficient balance to unstake');\r\n        //calculates unstaking tax\r\n        uint unstakingTax = (unstakingTaxRate.mul(_amount)).div(1000);\r\n        //calculates amount after tax\r\n        uint afterTax = _amount.sub(unstakingTax);\r\n        //sums up stakeholder's total rewards with _amount deducting unstaking tax\r\n        uint unstakePlusAllEarnings = stakeRewards[msg.sender].add(referralRewards[msg.sender]).add(afterTax).add(calculateEarnings(msg.sender));\r\n        //transfers value to stakeholder\r\n        IERC20(lead).transfer(msg.sender, unstakePlusAllEarnings);\r\n        //updates stakes\r\n        stakes[msg.sender] = stakes[msg.sender].sub(_amount);\r\n        //initializes stake rewards\r\n        stakeRewards[msg.sender] = 0;\r\n        //initializes referral rewards\r\n        referralRewards[msg.sender] = 0;\r\n        //initializes referral count\r\n        referralCount[msg.sender] = 0;\r\n        //calculates unpaid period\r\n        uint remainder = (now.sub(lastClock[msg.sender])).mod(86400);\r\n        //mark transaction date with remainder\r\n        lastClock[msg.sender] = now.sub(remainder);\r\n        //update the total staked LEAD amount in the pool\r\n        totalStaked = totalStaked.sub(_amount);\r\n        //conditional statement if stakeholder has no stake left\r\n        if(stakes[msg.sender] == 0) {\r\n            //deregister stakeholder\r\n            _removeStakeholder(msg.sender);\r\n        }\r\n        //emit event\r\n        emit OnUnstake(msg.sender, _amount, unstakingTax);\r\n    }\r\n    \r\n    /**\r\n     * checks if _address is a registered stakeholder\r\n     * returns 'true' and 'id number' if stakeholder and 'false' and '0'  if not\r\n     */\r\n    function isStakeholder(address _address) public view returns(bool, uint) {\r\n        //loops through the stakeholders list\r\n        for (uint i = 0; i < index; i += 1){\r\n            //conditional statement if address is stakeholder\r\n            if (_address == userIndex[i]) {\r\n                //returns true and list id\r\n                return (true, i);\r\n            }\r\n        }\r\n        //returns false and 0\r\n        return (false, 0);\r\n    }\r\n    \r\n    //deregisters _stakeholder and removes address from stakeholders list\r\n    function _removeStakeholder(address _stakeholder) internal {\r\n        //changes registered staus to false\r\n        registered[msg.sender] = false;\r\n        //identify stakeholder in the stakeholders list\r\n        (bool _isStakeholder, uint i) = isStakeholder(_stakeholder);\r\n        if(_isStakeholder){\r\n            delete userIndex[i];\r\n        }\r\n    }\r\n\r\n    //transfers total active earnng to stakeholders wallett\r\n    function withdrawEarnings() external onlyRegistered() whenActive() {\r\n        //calculates the total redeemable rewards\r\n        uint totalReward = referralRewards[msg.sender].add(stakeRewards[msg.sender]).add(calculateEarnings(msg.sender));\r\n        //makes sure user has rewards to withdraw before execution\r\n        require(totalReward > 0, 'No reward to withdraw'); \r\n        //transfers total rewards to stakeholder\r\n        IERC20(lead).transfer(msg.sender, totalReward);\r\n        //initializes stake rewards\r\n        stakeRewards[msg.sender] = 0;\r\n        //initializes referal rewards\r\n        referralRewards[msg.sender] = 0;\r\n        //initializes referral count\r\n        referralCount[msg.sender] = 0;\r\n        //calculates unpaid period\r\n        uint remainder = (now.sub(lastClock[msg.sender])).mod(86400);\r\n        //mark transaction date with remainder\r\n        lastClock[msg.sender] = now.sub(remainder);\r\n        //emit event\r\n        emit OnWithdrawal(msg.sender, totalReward);\r\n    }\r\n\r\n    function changeActiveStatus() external onlyOwner() {\r\n        if(active = true) {\r\n            active == false;\r\n        } else {\r\n            active == true;\r\n        }\r\n    }\r\n    \r\n    //sets the staking rate\r\n    function setStakingTaxRate(uint8 _stakingTaxRate) external onlyOwner() {\r\n        stakingTaxRate = _stakingTaxRate;\r\n    }\r\n\r\n    //sets the unstaking rate\r\n    function setUnstakingTaxRate(uint8 _unstakingTaxRate) external onlyOwner() {\r\n        unstakingTaxRate = _unstakingTaxRate;\r\n    }\r\n    \r\n    //sets the daily ROI\r\n    function setDailyROI(uint8 _dailyROI) external onlyOwner() {\r\n        for(uint i = 0; i < index; i++){\r\n            //registers all previous earnings\r\n            stakeRewards[userIndex[i]] = stakeRewards[userIndex[i]].add(calculateEarnings(userIndex[i]));\r\n            //calculates unpaid period\r\n            uint remainder = (now.sub(lastClock[userIndex[i]])).mod(86400);\r\n            //mark transaction date with remainder\r\n            lastClock[userIndex[i]] = now.sub(remainder);\r\n        }\r\n        dailyROI = _dailyROI;\r\n    }\r\n    \r\n    //sets the registration tax\r\n    function setRegistrationTax(uint _registrationTax) external onlyOwner() {\r\n        registrationTax = _registrationTax;\r\n    }\r\n    \r\n    //sets the refferal tax allocation \r\n    function setReferralTaxAllocation(uint _referralTaxAllocation) external onlyOwner() {\r\n        referralTaxAllocation = _referralTaxAllocation;\r\n    }\r\n    \r\n    //sets the minimum stake value\r\n    function setMinimumStakeValue(uint _minimumStakeValue) external onlyOwner() {\r\n        minimumStakeValue = _minimumStakeValue;\r\n    }\r\n    \r\n    //withdraws _amount from the pool to _address\r\n    function adminWithdraw(address _address, uint _amount) external onlyOwner {\r\n        //makes sure _amount is not more than smart contract balance\r\n        require(IERC20(lead).balanceOf(address(this)) >= _amount, 'Insufficient LEAD balance in smart contract');\r\n        //transfers _amount to _address\r\n        IERC20(lead).transfer(_address, _amount);\r\n        //emit event\r\n        emit OnWithdrawal(_address, _amount);\r\n    }\r\n\r\n    //supplies LEAD from 'owner' to smart contract if pool balance runs dry\r\n    function supplyPool() external onlyOwner() {\r\n        //total balance that can be claimed in the pool\r\n        uint totalClaimable;\r\n        //loop through stakeholders' list\r\n        for(uint i = 0; i < index; i++){\r\n            //sum up all redeemable LEAD\r\n            totalClaimable = stakeRewards[userIndex[i]].add(referralRewards[userIndex[i]]).add(stakes[userIndex[i]]).add(calculateEarnings(userIndex[i]));\r\n        }\r\n        //makes sure the pool dept is higher than balance\r\n        require(totalClaimable > IERC20(lead).balanceOf(address(this)), 'Still have enough pool reserve');\r\n        //calculate difference\r\n        uint difference = totalClaimable.sub(IERC20(lead).balanceOf(address(this)));\r\n        //makes sure 'owner' has enough balance\r\n        require(IERC20(lead).balanceOf(msg.sender) >= difference, 'Insufficient LEAD balance in owner wallet');\r\n        //transfers LEAD from 'owner' to smart contract to make up for dept\r\n        IERC20(lead).transferFrom(msg.sender, address(this), difference);\r\n        //emits event\r\n        emit OnDeposit(msg.sender, difference, now);\r\n    }\r\n}",
  "sourcePath": "C:\\Users\\LENOVO\\Desktop\\THE GRIND\\Blockchain Dev\\gitrepo\\LeadStake\\contracts\\LeadStake.sol",
  "compiler": {
    "name": "solc",
    "version": "0.6.12+commit.27d51765.Emscripten.clang"
  },
  "schemaVersion": "3.0.23",
  "updatedAt": "2020-09-30T11:28:59.044Z",
  "networkType": "ethereum",
  "devdoc": {
    "kind": "dev",
    "methods": {
      "constructor": {
        "details": "Sets the initial values"
      },
      "owner()": {
        "details": "Returns the address of the current owner."
      },
      "renounceOwnership()": {
        "details": "Leaves the contract without owner. It will not be possible to call `onlyOwner` functions anymore. Can only be called by the current owner. NOTE: Renouncing ownership will leave the contract without an owner, thereby removing any functionality that is only available to the owner."
      },
      "transferOwnership(address)": {
        "details": "Transfers ownership of the contract to a new account (`newOwner`). Can only be called by the current owner."
      }
    },
    "version": 1
  },
  "userdoc": {
    "kind": "user",
    "methods": {
      "isStakeholder(address)": {
        "notice": "checks if _address is a registered stakeholder returns 'true' and 'id number' if stakeholder and 'false' and '0'  if not"
      },
      "registerAndStake(uint256,address)": {
        "notice": "registers and creates stakes for new stakeholders deducts the registration tax and staking tax calculates refferal bonus from the registration tax and sends it to the _referrer if there is one transfers LEAD from sender's address into the smart contract Emits an {OnRegisterAndStake} event.."
      },
      "stake(uint256)": {
        "notice": "creates stakes for already registered stakeholders deducts the staking tax from _amount inputted registers the remainder in the stakes of the sender records the previous earnings before updated stakes  Emits an {OnStake} event"
      },
      "unstake(uint256)": {
        "notice": "removes '_amount' stakes for already registered stakeholders deducts the unstaking tax from '_amount' transfers the sum of the remainder, stake rewards, referral rewards, and current eanrings to the sender  deregisters stakeholder if all the stakes are removed Emits an {OnStake} event"
      }
    },
    "version": 1
  }
}