{
  "contractName": "LeadStake",
  "abi": [
    {
      "inputs": [
        {
          "internalType": "address",
          "name": "_token",
          "type": "address"
        },
        {
          "internalType": "uint8",
          "name": "_stakingTaxRate",
          "type": "uint8"
        },
        {
          "internalType": "uint8",
          "name": "_unstakingTaxRate",
          "type": "uint8"
        },
        {
          "internalType": "uint8",
          "name": "_hourlyROI",
          "type": "uint8"
        },
        {
          "internalType": "uint256",
          "name": "_registrationTax",
          "type": "uint256"
        },
        {
          "internalType": "uint256",
          "name": "_referralTaxAllocation",
          "type": "uint256"
        },
        {
          "internalType": "uint256",
          "name": "_minimumStakeValue",
          "type": "uint256"
        }
      ],
      "stateMutability": "nonpayable",
      "type": "constructor"
    },
    {
      "anonymous": false,
      "inputs": [
        {
          "indexed": false,
          "internalType": "address",
          "name": "sender",
          "type": "address"
        },
        {
          "indexed": false,
          "internalType": "uint256",
          "name": "amount",
          "type": "uint256"
        },
        {
          "indexed": false,
          "internalType": "uint256",
          "name": "time",
          "type": "uint256"
        }
      ],
      "name": "OnDeposit",
      "type": "event"
    },
    {
      "anonymous": false,
      "inputs": [
        {
          "indexed": false,
          "internalType": "address",
          "name": "stakeholder",
          "type": "address"
        },
        {
          "indexed": false,
          "internalType": "uint256",
          "name": "amount",
          "type": "uint256"
        },
        {
          "indexed": false,
          "internalType": "uint256",
          "name": "totalTax",
          "type": "uint256"
        },
        {
          "indexed": false,
          "internalType": "address",
          "name": "_referrer",
          "type": "address"
        }
      ],
      "name": "OnRegisterAndStake",
      "type": "event"
    },
    {
      "anonymous": false,
      "inputs": [
        {
          "indexed": false,
          "internalType": "address",
          "name": "sender",
          "type": "address"
        },
        {
          "indexed": false,
          "internalType": "uint256",
          "name": "amount",
          "type": "uint256"
        },
        {
          "indexed": false,
          "internalType": "uint256",
          "name": "tax",
          "type": "uint256"
        }
      ],
      "name": "OnStake",
      "type": "event"
    },
    {
      "anonymous": false,
      "inputs": [
        {
          "indexed": false,
          "internalType": "address",
          "name": "sender",
          "type": "address"
        },
        {
          "indexed": false,
          "internalType": "uint256",
          "name": "amount",
          "type": "uint256"
        },
        {
          "indexed": false,
          "internalType": "uint256",
          "name": "tax",
          "type": "uint256"
        }
      ],
      "name": "OnUnstake",
      "type": "event"
    },
    {
      "anonymous": false,
      "inputs": [
        {
          "indexed": false,
          "internalType": "address",
          "name": "sender",
          "type": "address"
        },
        {
          "indexed": false,
          "internalType": "uint256",
          "name": "amount",
          "type": "uint256"
        }
      ],
      "name": "OnWithdrawal",
      "type": "event"
    },
    {
      "anonymous": false,
      "inputs": [
        {
          "indexed": true,
          "internalType": "address",
          "name": "previousOwner",
          "type": "address"
        },
        {
          "indexed": true,
          "internalType": "address",
          "name": "newOwner",
          "type": "address"
        }
      ],
      "name": "OwnershipTransferred",
      "type": "event"
    },
    {
      "inputs": [],
      "name": "hourlyROI",
      "outputs": [
        {
          "internalType": "uint8",
          "name": "",
          "type": "uint8"
        }
      ],
      "stateMutability": "view",
      "type": "function",
      "constant": true
    },
    {
      "inputs": [
        {
          "internalType": "address",
          "name": "",
          "type": "address"
        }
      ],
      "name": "lastClock",
      "outputs": [
        {
          "internalType": "uint256",
          "name": "",
          "type": "uint256"
        }
      ],
      "stateMutability": "view",
      "type": "function",
      "constant": true
    },
    {
      "inputs": [],
      "name": "lead",
      "outputs": [
        {
          "internalType": "address",
          "name": "",
          "type": "address"
        }
      ],
      "stateMutability": "view",
      "type": "function",
      "constant": true
    },
    {
      "inputs": [],
      "name": "minimumStakeValue",
      "outputs": [
        {
          "internalType": "uint256",
          "name": "",
          "type": "uint256"
        }
      ],
      "stateMutability": "view",
      "type": "function",
      "constant": true
    },
    {
      "inputs": [],
      "name": "owner",
      "outputs": [
        {
          "internalType": "address",
          "name": "",
          "type": "address"
        }
      ],
      "stateMutability": "view",
      "type": "function",
      "constant": true
    },
    {
      "inputs": [
        {
          "internalType": "address",
          "name": "",
          "type": "address"
        }
      ],
      "name": "referralCount",
      "outputs": [
        {
          "internalType": "uint256",
          "name": "",
          "type": "uint256"
        }
      ],
      "stateMutability": "view",
      "type": "function",
      "constant": true
    },
    {
      "inputs": [
        {
          "internalType": "address",
          "name": "",
          "type": "address"
        }
      ],
      "name": "referralRewards",
      "outputs": [
        {
          "internalType": "uint256",
          "name": "",
          "type": "uint256"
        }
      ],
      "stateMutability": "view",
      "type": "function",
      "constant": true
    },
    {
      "inputs": [],
      "name": "referralTaxAllocation",
      "outputs": [
        {
          "internalType": "uint256",
          "name": "",
          "type": "uint256"
        }
      ],
      "stateMutability": "view",
      "type": "function",
      "constant": true
    },
    {
      "inputs": [
        {
          "internalType": "address",
          "name": "",
          "type": "address"
        }
      ],
      "name": "registered",
      "outputs": [
        {
          "internalType": "bool",
          "name": "",
          "type": "bool"
        }
      ],
      "stateMutability": "view",
      "type": "function",
      "constant": true
    },
    {
      "inputs": [],
      "name": "registrationTax",
      "outputs": [
        {
          "internalType": "uint256",
          "name": "",
          "type": "uint256"
        }
      ],
      "stateMutability": "view",
      "type": "function",
      "constant": true
    },
    {
      "inputs": [],
      "name": "renounceOwnership",
      "outputs": [],
      "stateMutability": "nonpayable",
      "type": "function"
    },
    {
      "inputs": [
        {
          "internalType": "address",
          "name": "",
          "type": "address"
        }
      ],
      "name": "stakeRewards",
      "outputs": [
        {
          "internalType": "uint256",
          "name": "",
          "type": "uint256"
        }
      ],
      "stateMutability": "view",
      "type": "function",
      "constant": true
    },
    {
      "inputs": [
        {
          "internalType": "uint256",
          "name": "",
          "type": "uint256"
        }
      ],
      "name": "stakeholders",
      "outputs": [
        {
          "internalType": "address",
          "name": "",
          "type": "address"
        }
      ],
      "stateMutability": "view",
      "type": "function",
      "constant": true
    },
    {
      "inputs": [
        {
          "internalType": "address",
          "name": "",
          "type": "address"
        }
      ],
      "name": "stakes",
      "outputs": [
        {
          "internalType": "uint256",
          "name": "",
          "type": "uint256"
        }
      ],
      "stateMutability": "view",
      "type": "function",
      "constant": true
    },
    {
      "inputs": [],
      "name": "stakingTaxRate",
      "outputs": [
        {
          "internalType": "uint256",
          "name": "",
          "type": "uint256"
        }
      ],
      "stateMutability": "view",
      "type": "function",
      "constant": true
    },
    {
      "inputs": [],
      "name": "totalStaked",
      "outputs": [
        {
          "internalType": "uint256",
          "name": "",
          "type": "uint256"
        }
      ],
      "stateMutability": "view",
      "type": "function",
      "constant": true
    },
    {
      "inputs": [
        {
          "internalType": "address",
          "name": "newOwner",
          "type": "address"
        }
      ],
      "name": "transferOwnership",
      "outputs": [],
      "stateMutability": "nonpayable",
      "type": "function"
    },
    {
      "inputs": [],
      "name": "unstakingTaxRate",
      "outputs": [
        {
          "internalType": "uint256",
          "name": "",
          "type": "uint256"
        }
      ],
      "stateMutability": "view",
      "type": "function",
      "constant": true
    },
    {
      "inputs": [
        {
          "internalType": "uint256",
          "name": "_amount",
          "type": "uint256"
        },
        {
          "internalType": "address",
          "name": "_referrer",
          "type": "address"
        }
      ],
      "name": "registerAndStake",
      "outputs": [],
      "stateMutability": "nonpayable",
      "type": "function"
    },
    {
      "inputs": [
        {
          "internalType": "address",
          "name": "_stakeholder",
          "type": "address"
        }
      ],
      "name": "calculateEarnings",
      "outputs": [
        {
          "internalType": "uint256",
          "name": "",
          "type": "uint256"
        }
      ],
      "stateMutability": "view",
      "type": "function",
      "constant": true
    },
    {
      "inputs": [
        {
          "internalType": "uint256",
          "name": "_amount",
          "type": "uint256"
        }
      ],
      "name": "stake",
      "outputs": [],
      "stateMutability": "nonpayable",
      "type": "function"
    },
    {
      "inputs": [
        {
          "internalType": "uint256",
          "name": "_amount",
          "type": "uint256"
        }
      ],
      "name": "unstake",
      "outputs": [],
      "stateMutability": "nonpayable",
      "type": "function"
    },
    {
      "inputs": [
        {
          "internalType": "address",
          "name": "_address",
          "type": "address"
        }
      ],
      "name": "isStakeholder",
      "outputs": [
        {
          "internalType": "bool",
          "name": "",
          "type": "bool"
        },
        {
          "internalType": "uint256",
          "name": "",
          "type": "uint256"
        }
      ],
      "stateMutability": "view",
      "type": "function",
      "constant": true
    },
    {
      "inputs": [],
      "name": "withdrawEarnings",
      "outputs": [],
      "stateMutability": "nonpayable",
      "type": "function"
    },
    {
      "inputs": [
        {
          "internalType": "uint8",
          "name": "_stakingTaxRate",
          "type": "uint8"
        }
      ],
      "name": "setStakingTaxRate",
      "outputs": [],
      "stateMutability": "nonpayable",
      "type": "function"
    },
    {
      "inputs": [
        {
          "internalType": "uint8",
          "name": "_unstakingTaxRate",
          "type": "uint8"
        }
      ],
      "name": "setUnstakingTaxRate",
      "outputs": [],
      "stateMutability": "nonpayable",
      "type": "function"
    },
    {
      "inputs": [
        {
          "internalType": "uint8",
          "name": "_hourlyROI",
          "type": "uint8"
        }
      ],
      "name": "setHourlyROI",
      "outputs": [],
      "stateMutability": "nonpayable",
      "type": "function"
    },
    {
      "inputs": [
        {
          "internalType": "uint256",
          "name": "_registrationTax",
          "type": "uint256"
        }
      ],
      "name": "setRegistrationTax",
      "outputs": [],
      "stateMutability": "nonpayable",
      "type": "function"
    },
    {
      "inputs": [
        {
          "internalType": "uint256",
          "name": "_referralTaxAllocation",
          "type": "uint256"
        }
      ],
      "name": "setReferralTaxAllocation",
      "outputs": [],
      "stateMutability": "nonpayable",
      "type": "function"
    },
    {
      "inputs": [
        {
          "internalType": "uint256",
          "name": "_minimumStakeValue",
          "type": "uint256"
        }
      ],
      "name": "setMinimumStakeValue",
      "outputs": [],
      "stateMutability": "nonpayable",
      "type": "function"
    },
    {
      "inputs": [
        {
          "internalType": "address",
          "name": "_address",
          "type": "address"
        },
        {
          "internalType": "uint256",
          "name": "_amount",
          "type": "uint256"
        }
      ],
      "name": "adminWithdraw",
      "outputs": [],
      "stateMutability": "nonpayable",
      "type": "function"
    },
    {
      "inputs": [],
      "name": "supplyPool",
      "outputs": [],
      "stateMutability": "nonpayable",
      "type": "function"
    }
  ],
  "bytecode": "0x60806040523480156200001157600080fd5b506040516200402138038062004021833981810160405260e08110156200003757600080fd5b8101908080519060200190929190805190602001909291908051906020019092919080519060200190929190805190602001909291908051906020019092919080519060200190929190505050600062000096620001c660201b60201c565b9050806000806101000a81548173ffffffffffffffffffffffffffffffffffffffff021916908373ffffffffffffffffffffffffffffffffffffffff1602179055508073ffffffffffffffffffffffffffffffffffffffff16600073ffffffffffffffffffffffffffffffffffffffff167f8be0079c531659141344cd1fd0a4f28419497f9722a3daafe3b4186f6b6457e060405160405180910390a35086600160006101000a81548173ffffffffffffffffffffffffffffffffffffffff021916908373ffffffffffffffffffffffffffffffffffffffff1602179055508560ff166003819055508460ff1660068190555083600560006101000a81548160ff021916908360ff16021790555082600481905550816008819055508060078190555050505050505050620001ce565b600033905090565b613e4380620001de6000396000f3fe608060405234801561001057600080fd5b50600436106101f05760003560e01c8063817b1cd21161010f578063db74559b116100a2578063efad16a811610071578063efad16a8146107fe578063f24ee7d31461081c578063f2fde38b1461086a578063fbfaa24d146108ae576101f0565b8063db74559b146106bc578063e0de0c6814610714578063ec39d92c1461076c578063ef037b901461079d576101f0565b8063b60dbb5b116100de578063b60dbb5b146105fb578063b73c6ce914610629578063c428e11414610633578063cc62db5b1461068b576101f0565b8063817b1cd2146105215780638da5cb5b1461053f578063a694fc3a14610573578063b2dd5c07146105a1576101f0565b806337cb7e271161018757806353aaa63b1161015657806353aaa63b1461044957806370f0f387146104a1578063715018a6146104bf578063789c1d3a146104c9576101f0565b806337cb7e2714610378578063401d44821461039957806346bb0a16146103e75780634be4d7901461041b576101f0565b806318e1fbfc116101c357806318e1fbfc146102a35780631d6b8b72146102c1578063269e3e3a146103195780632e17de781461034a576101f0565b806301c11d2c146101f557806306693604146101ff5780630aca582e1461022d57806316934fc41461024b575b600080fd5b6101fd6108cc565b005b61022b6004803603602081101561021557600080fd5b810190808035906020019092919050505061100d565b005b6102356110df565b6040518082815260200191505060405180910390f35b61028d6004803603602081101561026157600080fd5b81019080803573ffffffffffffffffffffffffffffffffffffffff1690602001909291905050506110e5565b6040518082815260200191505060405180910390f35b6102ab6110fd565b6040518082815260200191505060405180910390f35b6102ed600480360360208110156102d757600080fd5b8101908080359060200190929190505050611103565b604051808273ffffffffffffffffffffffffffffffffffffffff16815260200191505060405180910390f35b6103486004803603602081101561032f57600080fd5b81019080803560ff16906020019092919050505061113f565b005b6103766004803603602081101561036057600080fd5b8101908080359060200190929190505050611214565b005b6103806117db565b604051808260ff16815260200191505060405180910390f35b6103e5600480360360408110156103af57600080fd5b81019080803573ffffffffffffffffffffffffffffffffffffffff169060200190929190803590602001909291905050506117ee565b005b6103ef611afa565b604051808273ffffffffffffffffffffffffffffffffffffffff16815260200191505060405180910390f35b6104476004803603602081101561043157600080fd5b8101908080359060200190929190505050611b20565b005b61048b6004803603602081101561045f57600080fd5b81019080803573ffffffffffffffffffffffffffffffffffffffff169060200190929190505050611bf2565b6040518082815260200191505060405180910390f35b6104a9611c0a565b6040518082815260200191505060405180910390f35b6104c7611c10565b005b61050b600480360360208110156104df57600080fd5b81019080803573ffffffffffffffffffffffffffffffffffffffff169060200190929190505050611d96565b6040518082815260200191505060405180910390f35b610529611dae565b6040518082815260200191505060405180910390f35b610547611db4565b604051808273ffffffffffffffffffffffffffffffffffffffff16815260200191505060405180910390f35b61059f6004803603602081101561058957600080fd5b8101908080359060200190929190505050611ddd565b005b6105e3600480360360208110156105b757600080fd5b81019080803573ffffffffffffffffffffffffffffffffffffffff169060200190929190505050612392565b60405180821515815260200191505060405180910390f35b6106276004803603602081101561061157600080fd5b81019080803590602001909291905050506123b2565b005b610631612484565b005b6106756004803603602081101561064957600080fd5b81019080803573ffffffffffffffffffffffffffffffffffffffff1690602001909291905050506128a9565b6040518082815260200191505060405180910390f35b6106ba600480360360208110156106a157600080fd5b81019080803560ff1690602001909291905050506128c1565b005b6106fe600480360360208110156106d257600080fd5b81019080803573ffffffffffffffffffffffffffffffffffffffff169060200190929190505050612996565b6040518082815260200191505060405180910390f35b6107566004803603602081101561072a57600080fd5b81019080803573ffffffffffffffffffffffffffffffffffffffff1690602001909291905050506129ae565b6040518082815260200191505060405180910390f35b61079b6004803603602081101561078257600080fd5b81019080803560ff169060200190929190505050612aac565b005b6107df600480360360208110156107b357600080fd5b81019080803573ffffffffffffffffffffffffffffffffffffffff169060200190929190505050612d6d565b6040518083151581526020018281526020019250505060405180910390f35b610806612e11565b6040518082815260200191505060405180910390f35b6108686004803603604081101561083257600080fd5b8101908080359060200190929190803573ffffffffffffffffffffffffffffffffffffffff169060200190929190505050612e17565b005b6108ac6004803603602081101561088057600080fd5b81019080803573ffffffffffffffffffffffffffffffffffffffff169060200190929190505050613641565b005b6108b661384c565b6040518082815260200191505060405180910390f35b6108d4613852565b73ffffffffffffffffffffffffffffffffffffffff1660008054906101000a900473ffffffffffffffffffffffffffffffffffffffff1673ffffffffffffffffffffffffffffffffffffffff1614610994576040517f08c379a00000000000000000000000000000000000000000000000000000000081526004018080602001828103825260208152602001807f4f776e61626c653a2063616c6c6572206973206e6f7420746865206f776e657281525060200191505060405180910390fd5b600080600090505b600980549050811015610b9057610b816109ec600983815481106109bc57fe5b9060005260206000200160009054906101000a900473ffffffffffffffffffffffffffffffffffffffff166129ae565b610b73600a600060098681548110610a0057fe5b9060005260206000200160009054906101000a900473ffffffffffffffffffffffffffffffffffffffff1673ffffffffffffffffffffffffffffffffffffffff1673ffffffffffffffffffffffffffffffffffffffff16815260200190815260200160002054610b65600d600060098881548110610a7a57fe5b9060005260206000200160009054906101000a900473ffffffffffffffffffffffffffffffffffffffff1673ffffffffffffffffffffffffffffffffffffffff1673ffffffffffffffffffffffffffffffffffffffff16815260200190815260200160002054600b600060098981548110610af157fe5b9060005260206000200160009054906101000a900473ffffffffffffffffffffffffffffffffffffffff1673ffffffffffffffffffffffffffffffffffffffff1673ffffffffffffffffffffffffffffffffffffffff1681526020019081526020016000205461385a90919063ffffffff16565b61385a90919063ffffffff16565b61385a90919063ffffffff16565b9150808060010191505061099c565b50600160009054906101000a900473ffffffffffffffffffffffffffffffffffffffff1673ffffffffffffffffffffffffffffffffffffffff166370a08231306040518263ffffffff1660e01b8152600401808273ffffffffffffffffffffffffffffffffffffffff16815260200191505060206040518083038186803b158015610c1a57600080fd5b505afa158015610c2e573d6000803e3d6000fd5b505050506040513d6020811015610c4457600080fd5b81019080805190602001909291905050508111610cc9576040517f08c379a000000000000000000000000000000000000000000000000000000000815260040180806020018281038252601e8152602001807f5374696c6c206861766520656e6f75676820706f6f6c2072657365727665000081525060200191505060405180910390fd5b6000610da1600160009054906101000a900473ffffffffffffffffffffffffffffffffffffffff1673ffffffffffffffffffffffffffffffffffffffff166370a08231306040518263ffffffff1660e01b8152600401808273ffffffffffffffffffffffffffffffffffffffff16815260200191505060206040518083038186803b158015610d5757600080fd5b505afa158015610d6b573d6000803e3d6000fd5b505050506040513d6020811015610d8157600080fd5b8101908080519060200190929190505050836138e290919063ffffffff16565b905080600160009054906101000a900473ffffffffffffffffffffffffffffffffffffffff1673ffffffffffffffffffffffffffffffffffffffff166370a08231336040518263ffffffff1660e01b8152600401808273ffffffffffffffffffffffffffffffffffffffff16815260200191505060206040518083038186803b158015610e2d57600080fd5b505afa158015610e41573d6000803e3d6000fd5b505050506040513d6020811015610e5757600080fd5b81019080805190602001909291905050501015610ebf576040517f08c379a0000000000000000000000000000000000000000000000000000000008152600401808060200182810382526029815260200180613d966029913960400191505060405180910390fd5b600160009054906101000a900473ffffffffffffffffffffffffffffffffffffffff1673ffffffffffffffffffffffffffffffffffffffff166323b872dd3330846040518463ffffffff1660e01b8152600401808473ffffffffffffffffffffffffffffffffffffffff1681526020018373ffffffffffffffffffffffffffffffffffffffff1681526020018281526020019350505050602060405180830381600087803b158015610f7057600080fd5b505af1158015610f84573d6000803e3d6000fd5b505050506040513d6020811015610f9a57600080fd5b8101908080519060200190929190505050507f4988b6b5c28044f2eb6386f504468e02344c07872faa4440e79284d63aba0bee338242604051808473ffffffffffffffffffffffffffffffffffffffff168152602001838152602001828152602001935050505060405180910390a15050565b611015613852565b73ffffffffffffffffffffffffffffffffffffffff1660008054906101000a900473ffffffffffffffffffffffffffffffffffffffff1673ffffffffffffffffffffffffffffffffffffffff16146110d5576040517f08c379a00000000000000000000000000000000000000000000000000000000081526004018080602001828103825260208152602001807f4f776e61626c653a2063616c6c6572206973206e6f7420746865206f776e657281525060200191505060405180910390fd5b8060048190555050565b60045481565b600a6020528060005260406000206000915090505481565b60075481565b6009818154811061111057fe5b906000526020600020016000915054906101000a900473ffffffffffffffffffffffffffffffffffffffff1681565b611147613852565b73ffffffffffffffffffffffffffffffffffffffff1660008054906101000a900473ffffffffffffffffffffffffffffffffffffffff1673ffffffffffffffffffffffffffffffffffffffff1614611207576040517f08c379a00000000000000000000000000000000000000000000000000000000081526004018080602001828103825260208152602001807f4f776e61626c653a2063616c6c6572206973206e6f7420746865206f776e657281525060200191505060405180910390fd5b8060ff1660038190555050565b60011515600f60003373ffffffffffffffffffffffffffffffffffffffff1673ffffffffffffffffffffffffffffffffffffffff16815260200190815260200160002060009054906101000a900460ff161515146112da576040517f08c379a00000000000000000000000000000000000000000000000000000000081526004018080602001828103825260198152602001807f5374616b6572206d75737420626520726567697374657265640000000000000081525060200191505060405180910390fd5b600a60003373ffffffffffffffffffffffffffffffffffffffff1673ffffffffffffffffffffffffffffffffffffffff1681526020019081526020016000205481111561138f576040517f08c379a000000000000000000000000000000000000000000000000000000000815260040180806020018281038252601f8152602001807f496e73756666696369656e742062616c616e636520746f20756e7374616b650081525060200191505060405180910390fd5b60006113ba6103e86113ac8460065461392c90919063ffffffff16565b6139b290919063ffffffff16565b905060006113d182846138e290919063ffffffff16565b905060006114926113e1336129ae565b61148484611476600d60003373ffffffffffffffffffffffffffffffffffffffff1673ffffffffffffffffffffffffffffffffffffffff16815260200190815260200160002054600b60003373ffffffffffffffffffffffffffffffffffffffff1673ffffffffffffffffffffffffffffffffffffffff1681526020019081526020016000205461385a90919063ffffffff16565b61385a90919063ffffffff16565b61385a90919063ffffffff16565b9050600160009054906101000a900473ffffffffffffffffffffffffffffffffffffffff1673ffffffffffffffffffffffffffffffffffffffff1663a9059cbb33836040518363ffffffff1660e01b8152600401808373ffffffffffffffffffffffffffffffffffffffff16815260200182815260200192505050602060405180830381600087803b15801561152757600080fd5b505af115801561153b573d6000803e3d6000fd5b505050506040513d602081101561155157600080fd5b8101908080519060200190929190505050506115b584600a60003373ffffffffffffffffffffffffffffffffffffffff1673ffffffffffffffffffffffffffffffffffffffff168152602001908152602001600020546138e290919063ffffffff16565b600a60003373ffffffffffffffffffffffffffffffffffffffff1673ffffffffffffffffffffffffffffffffffffffff168152602001908152602001600020819055506000600b60003373ffffffffffffffffffffffffffffffffffffffff1673ffffffffffffffffffffffffffffffffffffffff168152602001908152602001600020819055506000600d60003373ffffffffffffffffffffffffffffffffffffffff1673ffffffffffffffffffffffffffffffffffffffff168152602001908152602001600020819055506000600c60003373ffffffffffffffffffffffffffffffffffffffff1673ffffffffffffffffffffffffffffffffffffffff1681526020019081526020016000208190555042600e60003373ffffffffffffffffffffffffffffffffffffffff1673ffffffffffffffffffffffffffffffffffffffff16815260200190815260200160002081905550611720846002546138e290919063ffffffff16565b6002819055506000600a60003373ffffffffffffffffffffffffffffffffffffffff1673ffffffffffffffffffffffffffffffffffffffff16815260200190815260200160002054141561177857611777336139fc565b5b7fefe5e683dfe58f596b38874c815bc9599676515f5e641a3305c40aba31c822a7338585604051808473ffffffffffffffffffffffffffffffffffffffff168152602001838152602001828152602001935050505060405180910390a150505050565b600560009054906101000a900460ff1681565b6117f6613852565b73ffffffffffffffffffffffffffffffffffffffff1660008054906101000a900473ffffffffffffffffffffffffffffffffffffffff1673ffffffffffffffffffffffffffffffffffffffff16146118b6576040517f08c379a00000000000000000000000000000000000000000000000000000000081526004018080602001828103825260208152602001807f4f776e61626c653a2063616c6c6572206973206e6f7420746865206f776e657281525060200191505060405180910390fd5b80600160009054906101000a900473ffffffffffffffffffffffffffffffffffffffff1673ffffffffffffffffffffffffffffffffffffffff166370a08231336040518263ffffffff1660e01b8152600401808273ffffffffffffffffffffffffffffffffffffffff16815260200191505060206040518083038186803b15801561194057600080fd5b505afa158015611954573d6000803e3d6000fd5b505050506040513d602081101561196a57600080fd5b810190808051906020019092919050505010156119d2576040517f08c379a000000000000000000000000000000000000000000000000000000000815260040180806020018281038252602b815260200180613d13602b913960400191505060405180910390fd5b600160009054906101000a900473ffffffffffffffffffffffffffffffffffffffff1673ffffffffffffffffffffffffffffffffffffffff1663a9059cbb83836040518363ffffffff1660e01b8152600401808373ffffffffffffffffffffffffffffffffffffffff16815260200182815260200192505050602060405180830381600087803b158015611a6557600080fd5b505af1158015611a79573d6000803e3d6000fd5b505050506040513d6020811015611a8f57600080fd5b8101908080519060200190929190505050507fefbfe3c015941f3419cd0c7f713fd74c6874d0da2d765adc7f700370ccd5ba5c8282604051808373ffffffffffffffffffffffffffffffffffffffff1681526020018281526020019250505060405180910390a15050565b600160009054906101000a900473ffffffffffffffffffffffffffffffffffffffff1681565b611b28613852565b73ffffffffffffffffffffffffffffffffffffffff1660008054906101000a900473ffffffffffffffffffffffffffffffffffffffff1673ffffffffffffffffffffffffffffffffffffffff1614611be8576040517f08c379a00000000000000000000000000000000000000000000000000000000081526004018080602001828103825260208152602001807f4f776e61626c653a2063616c6c6572206973206e6f7420746865206f776e657281525060200191505060405180910390fd5b8060078190555050565b600d6020528060005260406000206000915090505481565b60035481565b611c18613852565b73ffffffffffffffffffffffffffffffffffffffff1660008054906101000a900473ffffffffffffffffffffffffffffffffffffffff1673ffffffffffffffffffffffffffffffffffffffff1614611cd8576040517f08c379a00000000000000000000000000000000000000000000000000000000081526004018080602001828103825260208152602001807f4f776e61626c653a2063616c6c6572206973206e6f7420746865206f776e657281525060200191505060405180910390fd5b600073ffffffffffffffffffffffffffffffffffffffff1660008054906101000a900473ffffffffffffffffffffffffffffffffffffffff1673ffffffffffffffffffffffffffffffffffffffff167f8be0079c531659141344cd1fd0a4f28419497f9722a3daafe3b4186f6b6457e060405160405180910390a360008060006101000a81548173ffffffffffffffffffffffffffffffffffffffff021916908373ffffffffffffffffffffffffffffffffffffffff160217905550565b600e6020528060005260406000206000915090505481565b60025481565b60008060009054906101000a900473ffffffffffffffffffffffffffffffffffffffff16905090565b60011515600f60003373ffffffffffffffffffffffffffffffffffffffff1673ffffffffffffffffffffffffffffffffffffffff16815260200190815260200160002060009054906101000a900460ff16151514611ea3576040517f08c379a00000000000000000000000000000000000000000000000000000000081526004018080602001828103825260198152602001807f5374616b6572206d75737420626520726567697374657265640000000000000081525060200191505060405180910390fd5b600754811015611efe576040517f08c379a0000000000000000000000000000000000000000000000000000000008152600401808060200182810382526024815260200180613dea6024913960400191505060405180910390fd5b80600160009054906101000a900473ffffffffffffffffffffffffffffffffffffffff1673ffffffffffffffffffffffffffffffffffffffff166370a08231336040518263ffffffff1660e01b8152600401808273ffffffffffffffffffffffffffffffffffffffff16815260200191505060206040518083038186803b158015611f8857600080fd5b505afa158015611f9c573d6000803e3d6000fd5b505050506040513d6020811015611fb257600080fd5b8101908080519060200190929190505050101561201a576040517f08c379a0000000000000000000000000000000000000000000000000000000008152600401808060200182810382526021815260200180613cf26021913960400191505060405180910390fd5b600160009054906101000a900473ffffffffffffffffffffffffffffffffffffffff1673ffffffffffffffffffffffffffffffffffffffff166323b872dd3330846040518463ffffffff1660e01b8152600401808473ffffffffffffffffffffffffffffffffffffffff1681526020018373ffffffffffffffffffffffffffffffffffffffff1681526020018281526020019350505050602060405180830381600087803b1580156120cb57600080fd5b505af11580156120df573d6000803e3d6000fd5b505050506040513d60208110156120f557600080fd5b810190808051906020019092919050505061215b576040517f08c379a000000000000000000000000000000000000000000000000000000000815260040180806020018281038252602b815260200180613dbf602b913960400191505060405180910390fd5b60006121866103e86121788460035461392c90919063ffffffff16565b6139b290919063ffffffff16565b9050600061219d82846138e290919063ffffffff16565b90506121b48160025461385a90919063ffffffff16565b6002819055506122146121c6336129ae565b600b60003373ffffffffffffffffffffffffffffffffffffffff1673ffffffffffffffffffffffffffffffffffffffff1681526020019081526020016000205461385a90919063ffffffff16565b600b60003373ffffffffffffffffffffffffffffffffffffffff1673ffffffffffffffffffffffffffffffffffffffff1681526020019081526020016000208190555042600e60003373ffffffffffffffffffffffffffffffffffffffff1673ffffffffffffffffffffffffffffffffffffffff168152602001908152602001600020819055506122ed81600a60003373ffffffffffffffffffffffffffffffffffffffff1673ffffffffffffffffffffffffffffffffffffffff1681526020019081526020016000205461385a90919063ffffffff16565b600a60003373ffffffffffffffffffffffffffffffffffffffff1673ffffffffffffffffffffffffffffffffffffffff168152602001908152602001600020819055507ffeb41de252fbc1de97d95a27ed44f6044e66e11df6ca319955eef830b598fdb4338284604051808473ffffffffffffffffffffffffffffffffffffffff168152602001838152602001828152602001935050505060405180910390a1505050565b600f6020528060005260406000206000915054906101000a900460ff1681565b6123ba613852565b73ffffffffffffffffffffffffffffffffffffffff1660008054906101000a900473ffffffffffffffffffffffffffffffffffffffff1673ffffffffffffffffffffffffffffffffffffffff161461247a576040517f08c379a00000000000000000000000000000000000000000000000000000000081526004018080602001828103825260208152602001807f4f776e61626c653a2063616c6c6572206973206e6f7420746865206f776e657281525060200191505060405180910390fd5b8060088190555050565b60011515600f60003373ffffffffffffffffffffffffffffffffffffffff1673ffffffffffffffffffffffffffffffffffffffff16815260200190815260200160002060009054906101000a900460ff1615151461254a576040517f08c379a00000000000000000000000000000000000000000000000000000000081526004018080602001828103825260198152602001807f5374616b6572206d75737420626520726567697374657265640000000000000081525060200191505060405180910390fd5b60006125f7612558336129ae565b6125e9600b60003373ffffffffffffffffffffffffffffffffffffffff1673ffffffffffffffffffffffffffffffffffffffff16815260200190815260200160002054600d60003373ffffffffffffffffffffffffffffffffffffffff1673ffffffffffffffffffffffffffffffffffffffff1681526020019081526020016000205461385a90919063ffffffff16565b61385a90919063ffffffff16565b90506000811161266f576040517f08c379a00000000000000000000000000000000000000000000000000000000081526004018080602001828103825260158152602001807f4e6f2072657761726420746f207769746864726177000000000000000000000081525060200191505060405180910390fd5b600160009054906101000a900473ffffffffffffffffffffffffffffffffffffffff1673ffffffffffffffffffffffffffffffffffffffff1663a9059cbb33836040518363ffffffff1660e01b8152600401808373ffffffffffffffffffffffffffffffffffffffff16815260200182815260200192505050602060405180830381600087803b15801561270257600080fd5b505af1158015612716573d6000803e3d6000fd5b505050506040513d602081101561272c57600080fd5b8101908080519060200190929190505050506000600b60003373ffffffffffffffffffffffffffffffffffffffff1673ffffffffffffffffffffffffffffffffffffffff168152602001908152602001600020819055506000600d60003373ffffffffffffffffffffffffffffffffffffffff1673ffffffffffffffffffffffffffffffffffffffff168152602001908152602001600020819055506000600c60003373ffffffffffffffffffffffffffffffffffffffff1673ffffffffffffffffffffffffffffffffffffffff1681526020019081526020016000208190555042600e60003373ffffffffffffffffffffffffffffffffffffffff1673ffffffffffffffffffffffffffffffffffffffff168152602001908152602001600020819055507fefbfe3c015941f3419cd0c7f713fd74c6874d0da2d765adc7f700370ccd5ba5c3382604051808373ffffffffffffffffffffffffffffffffffffffff1681526020018281526020019250505060405180910390a150565b600b6020528060005260406000206000915090505481565b6128c9613852565b73ffffffffffffffffffffffffffffffffffffffff1660008054906101000a900473ffffffffffffffffffffffffffffffffffffffff1673ffffffffffffffffffffffffffffffffffffffff1614612989576040517f08c379a00000000000000000000000000000000000000000000000000000000081526004018080602001828103825260208152602001807f4f776e61626c653a2063616c6c6572206973206e6f7420746865206f776e657281525060200191505060405180910390fd5b8060ff1660068190555050565b600c6020528060005260406000206000915090505481565b600080612a1862015180612a0a600e60008773ffffffffffffffffffffffffffffffffffffffff1673ffffffffffffffffffffffffffffffffffffffff16815260200190815260200160002054426138e290919063ffffffff16565b6139b290919063ffffffff16565b9050612aa4612710612a9683612a88600560009054906101000a900460ff1660ff16600a60008a73ffffffffffffffffffffffffffffffffffffffff1673ffffffffffffffffffffffffffffffffffffffff1681526020019081526020016000205461392c90919063ffffffff16565b61392c90919063ffffffff16565b6139b290919063ffffffff16565b915050919050565b612ab4613852565b73ffffffffffffffffffffffffffffffffffffffff1660008054906101000a900473ffffffffffffffffffffffffffffffffffffffff1673ffffffffffffffffffffffffffffffffffffffff1614612b74576040517f08c379a00000000000000000000000000000000000000000000000000000000081526004018080602001828103825260208152602001807f4f776e61626c653a2063616c6c6572206973206e6f7420746865206f776e657281525060200191505060405180910390fd5b60005b600980549050811015612d4e57612c4c612bc760098381548110612b9757fe5b9060005260206000200160009054906101000a900473ffffffffffffffffffffffffffffffffffffffff166129ae565b600b600060098581548110612bd857fe5b9060005260206000200160009054906101000a900473ffffffffffffffffffffffffffffffffffffffff1673ffffffffffffffffffffffffffffffffffffffff1673ffffffffffffffffffffffffffffffffffffffff1681526020019081526020016000205461385a90919063ffffffff16565b600b600060098481548110612c5d57fe5b9060005260206000200160009054906101000a900473ffffffffffffffffffffffffffffffffffffffff1673ffffffffffffffffffffffffffffffffffffffff1673ffffffffffffffffffffffffffffffffffffffff1681526020019081526020016000208190555042600e600060098481548110612cd857fe5b9060005260206000200160009054906101000a900473ffffffffffffffffffffffffffffffffffffffff1673ffffffffffffffffffffffffffffffffffffffff1673ffffffffffffffffffffffffffffffffffffffff168152602001908152602001600020819055508080600101915050612b77565b5080600560006101000a81548160ff021916908360ff16021790555050565b60008060005b600980549050811015612e035760098181548110612d8d57fe5b9060005260206000200160009054906101000a900473ffffffffffffffffffffffffffffffffffffffff1673ffffffffffffffffffffffffffffffffffffffff168473ffffffffffffffffffffffffffffffffffffffff161415612df8576001819250925050612e0c565b600181019050612d73565b50600080915091505b915091565b60085481565b60001515600f60003373ffffffffffffffffffffffffffffffffffffffff1673ffffffffffffffffffffffffffffffffffffffff16815260200190815260200160002060009054906101000a900460ff16151514612edd576040517f08c379a000000000000000000000000000000000000000000000000000000000815260040180806020018281038252601c8152602001807f5374616b657220697320616c726561647920726567697374657265640000000081525060200191505060405180910390fd5b8073ffffffffffffffffffffffffffffffffffffffff163373ffffffffffffffffffffffffffffffffffffffff161415612f7f576040517f08c379a00000000000000000000000000000000000000000000000000000000081526004018080602001828103825260118152602001807f43616e6e6f742072656665722073656c6600000000000000000000000000000081525060200191505060405180910390fd5b81600160009054906101000a900473ffffffffffffffffffffffffffffffffffffffff1673ffffffffffffffffffffffffffffffffffffffff166370a08231336040518263ffffffff1660e01b8152600401808273ffffffffffffffffffffffffffffffffffffffff16815260200191505060206040518083038186803b15801561300957600080fd5b505afa15801561301d573d6000803e3d6000fd5b505050506040513d602081101561303357600080fd5b8101908080519060200190929190505050101561309b576040517f08c379a0000000000000000000000000000000000000000000000000000000008152600401808060200182810382526021815260200180613cf26021913960400191505060405180910390fd5b600160009054906101000a900473ffffffffffffffffffffffffffffffffffffffff1673ffffffffffffffffffffffffffffffffffffffff166323b872dd3330856040518463ffffffff1660e01b8152600401808473ffffffffffffffffffffffffffffffffffffffff1681526020018373ffffffffffffffffffffffffffffffffffffffff1681526020018281526020019350505050602060405180830381600087803b15801561314c57600080fd5b505af1158015613160573d6000803e3d6000fd5b505050506040513d602081101561317657600080fd5b81019080805190602001909291905050506131dc576040517f08c379a000000000000000000000000000000000000000000000000000000000815260040180806020018281038252602b815260200180613dbf602b913960400191505060405180910390fd5b6131f360075460045461385a90919063ffffffff16565b82101561324b576040517f08c379a0000000000000000000000000000000000000000000000000000000008152600401808060200182810382526037815260200180613d5f6037913960400191505060405180910390fd5b6000613277606461326960085460045461392c90919063ffffffff16565b6139b290919063ffffffff16565b90506000613290600454856138e290919063ffffffff16565b905060006132bd6103e86132af8460035461392c90919063ffffffff16565b6139b290919063ffffffff16565b9050600073ffffffffffffffffffffffffffffffffffffffff168473ffffffffffffffffffffffffffffffffffffffff16146133d857600c60008573ffffffffffffffffffffffffffffffffffffffff1673ffffffffffffffffffffffffffffffffffffffff1681526020019081526020016000206000815480929190600101919050555061339483600d60008773ffffffffffffffffffffffffffffffffffffffff1673ffffffffffffffffffffffffffffffffffffffff1681526020019081526020016000205461385a90919063ffffffff16565b600d60008673ffffffffffffffffffffffffffffffffffffffff1673ffffffffffffffffffffffffffffffffffffffff168152602001908152602001600020819055505b61343c8161342e84600a60003373ffffffffffffffffffffffffffffffffffffffff1673ffffffffffffffffffffffffffffffffffffffff1681526020019081526020016000205461385a90919063ffffffff16565b6138e290919063ffffffff16565b600a60003373ffffffffffffffffffffffffffffffffffffffff1673ffffffffffffffffffffffffffffffffffffffff168152602001908152602001600020819055506134a6816134988460025461385a90919063ffffffff16565b6138e290919063ffffffff16565b6002819055506001600f60003373ffffffffffffffffffffffffffffffffffffffff1673ffffffffffffffffffffffffffffffffffffffff16815260200190815260200160002060006101000a81548160ff0219169083151502179055506009339080600181540180825580915050600190039060005260206000200160009091909190916101000a81548173ffffffffffffffffffffffffffffffffffffffff021916908373ffffffffffffffffffffffffffffffffffffffff16021790555042600e60003373ffffffffffffffffffffffffffffffffffffffff1673ffffffffffffffffffffffffffffffffffffffff168152602001908152602001600020819055507f2aef494423269f61b2dd75f1f1e289ef00d20b5a68bd5a6740c518cddd9a865b33866135e38460045461385a90919063ffffffff16565b87604051808573ffffffffffffffffffffffffffffffffffffffff1681526020018481526020018381526020018273ffffffffffffffffffffffffffffffffffffffff16815260200194505050505060405180910390a15050505050565b613649613852565b73ffffffffffffffffffffffffffffffffffffffff1660008054906101000a900473ffffffffffffffffffffffffffffffffffffffff1673ffffffffffffffffffffffffffffffffffffffff1614613709576040517f08c379a00000000000000000000000000000000000000000000000000000000081526004018080602001828103825260208152602001807f4f776e61626c653a2063616c6c6572206973206e6f7420746865206f776e657281525060200191505060405180910390fd5b600073ffffffffffffffffffffffffffffffffffffffff168173ffffffffffffffffffffffffffffffffffffffff16141561378f576040517f08c379a0000000000000000000000000000000000000000000000000000000008152600401808060200182810382526026815260200180613ccc6026913960400191505060405180910390fd5b8073ffffffffffffffffffffffffffffffffffffffff1660008054906101000a900473ffffffffffffffffffffffffffffffffffffffff1673ffffffffffffffffffffffffffffffffffffffff167f8be0079c531659141344cd1fd0a4f28419497f9722a3daafe3b4186f6b6457e060405160405180910390a3806000806101000a81548173ffffffffffffffffffffffffffffffffffffffff021916908373ffffffffffffffffffffffffffffffffffffffff16021790555050565b60065481565b600033905090565b6000808284019050838110156138d8576040517f08c379a000000000000000000000000000000000000000000000000000000000815260040180806020018281038252601b8152602001807f536166654d6174683a206164646974696f6e206f766572666c6f77000000000081525060200191505060405180910390fd5b8091505092915050565b600061392483836040518060400160405280601e81526020017f536166654d6174683a207375627472616374696f6e206f766572666c6f770000815250613b45565b905092915050565b60008083141561393f57600090506139ac565b600082840290508284828161395057fe5b04146139a7576040517f08c379a0000000000000000000000000000000000000000000000000000000008152600401808060200182810382526021815260200180613d3e6021913960400191505060405180910390fd5b809150505b92915050565b60006139f483836040518060400160405280601a81526020017f536166654d6174683a206469766973696f6e206279207a65726f000000000000815250613c05565b905092915050565b6000600f60003373ffffffffffffffffffffffffffffffffffffffff1673ffffffffffffffffffffffffffffffffffffffff16815260200190815260200160002060006101000a81548160ff021916908315150217905550600080613a6083612d6d565b915091508115613b4057600960016009805490500381548110613a7f57fe5b9060005260206000200160009054906101000a900473ffffffffffffffffffffffffffffffffffffffff1660098281548110613ab757fe5b9060005260206000200160006101000a81548173ffffffffffffffffffffffffffffffffffffffff021916908373ffffffffffffffffffffffffffffffffffffffff1602179055506009805480613b0a57fe5b6001900381819060005260206000200160006101000a81549073ffffffffffffffffffffffffffffffffffffffff021916905590555b505050565b6000838311158290613bf2576040517f08c379a00000000000000000000000000000000000000000000000000000000081526004018080602001828103825283818151815260200191508051906020019080838360005b83811015613bb7578082015181840152602081019050613b9c565b50505050905090810190601f168015613be45780820380516001836020036101000a031916815260200191505b509250505060405180910390fd5b5060008385039050809150509392505050565b60008083118290613cb1576040517f08c379a00000000000000000000000000000000000000000000000000000000081526004018080602001828103825283818151815260200191508051906020019080838360005b83811015613c76578082015181840152602081019050613c5b565b50505050905090810190601f168015613ca35780820380516001836020036101000a031916815260200191505b509250505060405180910390fd5b506000838581613cbd57fe5b04905080915050939250505056fe4f776e61626c653a206e6577206f776e657220697320746865207a65726f20616464726573734d757374206861766520656e6f7567682062616c616e636520746f207374616b65496e73756666696369656e74204c4541442062616c616e636520696e20736d61727420636f6e7472616374536166654d6174683a206d756c7469706c69636174696f6e206f766572666c6f774d7573742073656e64206174206c6561737420656e6f756768204c45414420746f2070617920726567697374726174696f6e206665652e496e73756666696369656e74204c4541442062616c616e636520696e206f776e65722077616c6c65745374616b65206661696c65642064756520746f206661696c656420616d6f756e74207472616e736665722e416d6f756e742069732062656c6f77206d696e696d756d207374616b652076616c75652ea264697066735822122080974c02e1837ca7fb8577b2f127af56bcd42f9bea3c570a6788dff5d91f97e764736f6c634300060c0033",
  "source": "//\"SPDX-License-Identifier: UNLICENSED\"\r\n\r\npragma solidity ^0.6.0;\r\n\r\nimport '@openzeppelin/contracts/math/SafeMath.sol';\r\n\r\nimport '@openzeppelin/contracts/token/ERC20/IERC20.sol';\r\n\r\nimport '@openzeppelin/contracts/access/Ownable.sol';\r\n\r\ncontract LeadStake is Ownable {\r\n    \r\n    //initializing safe computations\r\n    using SafeMath for uint;\r\n\r\n    //LEAD contract address\r\n    address public lead;\r\n    //total amount of staked lead\r\n    uint public totalStaked;\r\n    //tax rate for staking in percentage\r\n    uint public stakingTaxRate;                     //10 = 1%\r\n    //tax amount for registration\r\n    uint public registrationTax;\r\n    //hourly return of investment in percentage\r\n    uint8 public hourlyROI;                         //100 = 1%\r\n    //tax rate for unstaking in percentage\r\n    uint public unstakingTaxRate;                   //10 = 1%\r\n    //minimum stakeable LEAD \r\n    uint public minimumStakeValue;\r\n    //referral allocation from the registration tax\r\n    uint public referralTaxAllocation;\r\n    //list of stakeholders' addresses\r\n    address[] public stakeholders;\r\n    //mapping of stakeholders' address to number of stakes\r\n    mapping(address => uint) public stakes;\r\n    //mapping of stakeholders' address to stake rewards\r\n    mapping(address => uint) public stakeRewards;\r\n    //mapping of stakeholders' address to number of referrals \r\n    mapping(address => uint) public referralCount;\r\n    //mapping of stakeholders' address to referral rewards earned \r\n    mapping(address => uint) public referralRewards;\r\n    //mapping of stakeholder's address to last transaction time for reward calculation\r\n    mapping(address => uint) public lastClock;\r\n    //mapping of addresses to verify registered stakers\r\n    mapping(address => bool) public registered;\r\n    \r\n    //Events\r\n    event OnWithdrawal(address sender, uint amount);\r\n    event OnStake(address sender, uint amount, uint tax);\r\n    event OnUnstake(address sender, uint amount, uint tax);\r\n    event OnDeposit(address sender, uint amount, uint time);\r\n    event OnRegisterAndStake(address stakeholder, uint amount, uint totalTax , address _referrer);\r\n    \r\n    /**\r\n     * @dev Sets the initial values\r\n     */\r\n    constructor(\r\n        address _token,\r\n        uint8 _stakingTaxRate, \r\n        uint8 _unstakingTaxRate,\r\n        uint8 _hourlyROI,\r\n        uint _registrationTax,\r\n        uint _referralTaxAllocation,\r\n        uint _minimumStakeValue) public {\r\n            \r\n        //set initial state variables\r\n        lead = _token;\r\n        stakingTaxRate = _stakingTaxRate;\r\n        unstakingTaxRate = _unstakingTaxRate;\r\n        hourlyROI = _hourlyROI;\r\n        registrationTax = _registrationTax;\r\n        referralTaxAllocation = _referralTaxAllocation;\r\n        minimumStakeValue = _minimumStakeValue;\r\n    }\r\n    \r\n    //exclusive access for registered address\r\n    modifier onlyRegistered() {\r\n        require(registered[msg.sender] == true, \"Staker must be registered\");\r\n        _;\r\n    }\r\n    \r\n    //exclusive access for unregistered address\r\n    modifier onlyUnregistered() {\r\n        require(registered[msg.sender] == false, \"Staker is already registered\");\r\n        _;\r\n    }\r\n    \r\n    /**\r\n     * registers and creates stakes for new stakeholders\r\n     * deducts the registration tax and staking tax\r\n     * calculates refferal bonus from the registration tax and sends it to the _referrer if there is one\r\n     * transfers LEAD from sender's address into the smart contract\r\n     * Emits an {OnRegisterAndStake} event..\r\n     */\r\n    function registerAndStake(uint _amount, address _referrer) external onlyUnregistered() {\r\n        //makes sure user is not the referrer\r\n        require(msg.sender != _referrer, \"Cannot refer self\");\r\n        //makes sure user has enough amount\r\n        require(IERC20(lead).balanceOf(msg.sender) >= _amount, \"Must have enough balance to stake\");\r\n        //makes sure smart contract transfers LEAD from user\r\n        require(IERC20(lead).transferFrom(msg.sender, address(this), _amount), \"Stake failed due to failed amount transfer.\");\r\n        //makes sure amount is more than the registration fee and the minimum deposit\r\n        require(_amount >= registrationTax.add(minimumStakeValue), \"Must send at least enough LEAD to pay registration fee.\");\r\n        //calculates referral bonus\r\n        uint referralBonus = (registrationTax.mul(referralTaxAllocation)).div(100);\r\n        //calculates final amount after deducting registration tax\r\n        uint finalAmount = _amount.sub(registrationTax);\r\n        //calculates staking tax on final calculated amount\r\n        uint stakingTax = (stakingTaxRate.mul(finalAmount)).div(1000);\r\n        //conditional statement if user registers with referrer \r\n        if(_referrer != address(0x0)) {\r\n            //increase referral count of referrer\r\n            referralCount[_referrer]++;\r\n            //add referral bonus to referrer\r\n            referralRewards[_referrer] = referralRewards[_referrer].add(referralBonus);\r\n        } \r\n        //update the user's stakes deducting the staking tax\r\n        stakes[msg.sender] = stakes[msg.sender].add(finalAmount).sub(stakingTax);\r\n        //update the total staked LEAD amount in the pool\r\n        totalStaked = totalStaked.add(finalAmount).sub(stakingTax);\r\n        //register user and add to stakeholders list\r\n        registered[msg.sender] = true;\r\n        stakeholders.push(msg.sender);\r\n        //mark the transaction date\r\n        lastClock[msg.sender] = now;\r\n        //emit event\r\n        emit OnRegisterAndStake(msg.sender, _amount, registrationTax.add(stakingTax), _referrer);\r\n    }\r\n    \r\n    //calculates stakeholders latest unclaimed earnings \r\n    function calculateEarnings(address _stakeholder) public view returns(uint) {\r\n        //records the number of hours between the last payout time and now\r\n        uint activeHours = (now.sub(lastClock[_stakeholder])).div(86400);\r\n        //returns earnings based on hourly ROI and active days\r\n        return (stakes[_stakeholder].mul(hourlyROI).mul(activeHours)).div(10000);\r\n    }\r\n    \r\n    /**\r\n     * creates stakes for already registered stakeholders\r\n     * deducts the staking tax from _amount inputted\r\n     * registers the remainder in the stakes of the sender\r\n     * records the previous earnings before updated stakes \r\n     * Emits an {OnStake} event\r\n     */\r\n    function stake(uint _amount) external onlyRegistered() {\r\n        //makes sure stakeholder does not stake below the minimum\r\n        require(_amount >= minimumStakeValue, \"Amount is below minimum stake value.\");\r\n        //makes sure stakeholder has enough balance\r\n        require(IERC20(lead).balanceOf(msg.sender) >= _amount, \"Must have enough balance to stake\");\r\n        //makes sure smart contract transfers LEAD from user\r\n        require(IERC20(lead).transferFrom(msg.sender, address(this), _amount), \"Stake failed due to failed amount transfer.\");\r\n        //calculates staking tax on amount\r\n        uint stakingTax = (stakingTaxRate.mul(_amount)).div(1000);\r\n        //calculates amount after tax\r\n        uint afterTax = _amount.sub(stakingTax);\r\n        //update the total staked LEAD amount in the pool\r\n        totalStaked = totalStaked.add(afterTax);\r\n        //adds earnings current earnings to stakeRewards\r\n        stakeRewards[msg.sender] = stakeRewards[msg.sender].add(calculateEarnings(msg.sender));\r\n        //mark transaction date\r\n        lastClock[msg.sender] = now;\r\n        //updates stakeholder's stakes\r\n        stakes[msg.sender] = stakes[msg.sender].add(afterTax);\r\n        //emit event\r\n        emit OnStake(msg.sender, afterTax, stakingTax);\r\n    }\r\n    \r\n    \r\n    /**\r\n     * removes '_amount' stakes for already registered stakeholders\r\n     * deducts the unstaking tax from '_amount'\r\n     * transfers the sum of the remainder, stake rewards, referral rewards, and current eanrings to the sender \r\n     * deregisters stakeholder if all the stakes are removed\r\n     * Emits an {OnStake} event\r\n     */\r\n    function unstake(uint _amount) external onlyRegistered() {\r\n        //makes sure _amount is not more than stake balance\r\n        require(_amount <= stakes[msg.sender], 'Insufficient balance to unstake');\r\n        //calculates unstaking tax\r\n        uint unstakingTax = (unstakingTaxRate.mul(_amount)).div(1000);\r\n        //calculates amount after tax\r\n        uint afterTax = _amount.sub(unstakingTax);\r\n        //sums up stakeholder's total rewards with _amount deducting unstaking tax\r\n        uint unstakePlusAllEarnings = stakeRewards[msg.sender].add(referralRewards[msg.sender]).add(afterTax).add(calculateEarnings(msg.sender));\r\n        //transfers value to stakeholder\r\n        IERC20(lead).transfer(msg.sender, unstakePlusAllEarnings);\r\n        //updates stakes\r\n        stakes[msg.sender] = stakes[msg.sender].sub(_amount);\r\n        //initializes stake rewards\r\n        stakeRewards[msg.sender] = 0;\r\n        //initializes referral rewards\r\n        referralRewards[msg.sender] = 0;\r\n        //initializes referral count\r\n        referralCount[msg.sender] = 0;\r\n        //mark transaction date \r\n        lastClock[msg.sender] = now;\r\n        //update the total staked LEAD amount in the pool\r\n        totalStaked = totalStaked.sub(_amount);\r\n        //conditional statement if stakeholder has no stake left\r\n        if(stakes[msg.sender] == 0) {\r\n            //deregister stakeholder\r\n            _removeStakeholder(msg.sender);\r\n        }\r\n        //emit event\r\n        emit OnUnstake(msg.sender, _amount, unstakingTax);\r\n    }\r\n    \r\n    /**\r\n     * checks if _address is a registered stakeholder\r\n     * returns 'true' and 'id number' if stakeholder and 'false' and '0'  if not\r\n     */\r\n    function isStakeholder(address _address) public view returns(bool, uint) {\r\n        //loops through the stakeholders list\r\n        for (uint i = 0; i < stakeholders.length; i += 1){\r\n            //conditional statement if address is stakeholder\r\n            if (_address == stakeholders[i]) {\r\n                //returns true and list id\r\n                return (true, i);\r\n            }\r\n        }\r\n        //returns false and 0\r\n        return (false, 0);\r\n    }\r\n    \r\n    //deregisters _stakeholder and removes address from stakeholders list\r\n    function _removeStakeholder(address _stakeholder) internal {\r\n        //changes registered staus to false\r\n        registered[msg.sender] = false;\r\n        //identify stakeholder in the stakeholders list\r\n        (bool _isStakeholder, uint i) = isStakeholder(_stakeholder);\r\n        if(_isStakeholder){\r\n            //transfer stakeholdeer to last id in the list\r\n            stakeholders[i] = stakeholders[stakeholders.length - 1];\r\n            //delete last id of the list\r\n            stakeholders.pop();\r\n        }\r\n    }\r\n\r\n    //transfers total active earnng to stakeholders wallett\r\n    function withdrawEarnings() external onlyRegistered() {\r\n        //calculates the total redeemable rewards\r\n        uint totalReward = referralRewards[msg.sender].add(stakeRewards[msg.sender]).add(calculateEarnings(msg.sender));\r\n        //makes sure user has rewards to withdraw before execution\r\n        require(totalReward > 0, 'No reward to withdraw'); \r\n        //transfers total rewards to stakeholder\r\n        IERC20(lead).transfer(msg.sender, totalReward);\r\n        //initializes stake rewards\r\n        stakeRewards[msg.sender] = 0;\r\n        //initializes referal rewards\r\n        referralRewards[msg.sender] = 0;\r\n        //initializes referral count\r\n        referralCount[msg.sender] = 0;\r\n        //registers transaction date\r\n        lastClock[msg.sender] = now;\r\n        //emit event\r\n        emit OnWithdrawal(msg.sender, totalReward);\r\n    }\r\n\r\n    //sets the staking rate\r\n    function setStakingTaxRate(uint8 _stakingTaxRate) external onlyOwner() {\r\n        stakingTaxRate = _stakingTaxRate;\r\n    }\r\n\r\n    //sets the unstaking rate\r\n    function setUnstakingTaxRate(uint8 _unstakingTaxRate) external onlyOwner() {\r\n        unstakingTaxRate = _unstakingTaxRate;\r\n    }\r\n    \r\n    //sets the hourly ROI\r\n    function setHourlyROI(uint8 _hourlyROI) external onlyOwner() {\r\n        for(uint i = 0; i < stakeholders.length; i++){\r\n            //registers all previous earnings\r\n            stakeRewards[stakeholders[i]] = stakeRewards[stakeholders[i]].add(calculateEarnings(stakeholders[i]));\r\n            //logs transaction time\r\n            lastClock[stakeholders[i]] = now;\r\n        }\r\n        hourlyROI = _hourlyROI;\r\n    }\r\n    \r\n    //sets the registration tax\r\n    function setRegistrationTax(uint _registrationTax) external onlyOwner() {\r\n        registrationTax = _registrationTax;\r\n    }\r\n    \r\n    //sets the refferal tax allocation \r\n    function setReferralTaxAllocation(uint _referralTaxAllocation) external onlyOwner() {\r\n        referralTaxAllocation = _referralTaxAllocation;\r\n    }\r\n    \r\n    //sets the minimum stake value\r\n    function setMinimumStakeValue(uint _minimumStakeValue) external onlyOwner() {\r\n        minimumStakeValue = _minimumStakeValue;\r\n    }\r\n    \r\n    //withdraws _amount from the pool to _address\r\n    function adminWithdraw(address _address, uint _amount) external onlyOwner {\r\n        //makes sure _amount is not more than smart contract balance\r\n        require(IERC20(lead).balanceOf(msg.sender) >= _amount, 'Insufficient LEAD balance in smart contract');\r\n        //transfers _amount to _address\r\n        IERC20(lead).transfer(_address, _amount);\r\n        //emit event\r\n        emit OnWithdrawal(_address, _amount);\r\n    }\r\n\r\n    //supplies LEAD from 'owner' to smart contract if pool balance runs dry\r\n    function supplyPool() external onlyOwner() {\r\n        //total balance that can be claimed in the pool\r\n        uint totalClaimable;\r\n        //loop through stakeholders' list\r\n        for(uint i = 0; i < stakeholders.length; i++){\r\n            //sum up all redeemable LEAD\r\n            totalClaimable = stakeRewards[stakeholders[i]].add(referralRewards[stakeholders[i]]).add(stakes[stakeholders[i]]).add(calculateEarnings(stakeholders[i]));\r\n        }\r\n        //makes sure the pool dept is higher than balance\r\n        require(totalClaimable > IERC20(lead).balanceOf(address(this)), 'Still have enough pool reserve');\r\n        //calculate difference\r\n        uint difference = totalClaimable.sub(IERC20(lead).balanceOf(address(this)));\r\n        //makes sure 'owner' has enough balance\r\n        require(IERC20(lead).balanceOf(msg.sender) >= difference, 'Insufficient LEAD balance in owner wallet');\r\n        //transfers LEAD from 'owner' to smart contract to make up for dept\r\n        IERC20(lead).transferFrom(msg.sender, address(this), difference);\r\n        //emits event\r\n        emit OnDeposit(msg.sender, difference, now);\r\n    }\r\n}",
  "sourcePath": "C:\\Users\\LENOVO\\Desktop\\THE GRIND\\Blockchain Dev\\gitrepo\\LeadStake\\contracts\\LeadStake.sol",
  "compiler": {
    "name": "solc",
    "version": "0.6.12+commit.27d51765.Emscripten.clang"
  },
  "schemaVersion": "3.0.23",
  "updatedAt": "2020-09-23T19:19:56.531Z",
  "networkType": "ethereum",
  "devdoc": {
    "kind": "dev",
    "methods": {
      "constructor": {
        "details": "Sets the initial values"
      },
      "owner()": {
        "details": "Returns the address of the current owner."
      },
      "renounceOwnership()": {
        "details": "Leaves the contract without owner. It will not be possible to call `onlyOwner` functions anymore. Can only be called by the current owner. NOTE: Renouncing ownership will leave the contract without an owner, thereby removing any functionality that is only available to the owner."
      },
      "transferOwnership(address)": {
        "details": "Transfers ownership of the contract to a new account (`newOwner`). Can only be called by the current owner."
      }
    },
    "version": 1
  },
  "userdoc": {
    "kind": "user",
    "methods": {
      "isStakeholder(address)": {
        "notice": "checks if _address is a registered stakeholder returns 'true' and 'id number' if stakeholder and 'false' and '0'  if not"
      },
      "registerAndStake(uint256,address)": {
        "notice": "registers and creates stakes for new stakeholders deducts the registration tax and staking tax calculates refferal bonus from the registration tax and sends it to the _referrer if there is one transfers LEAD from sender's address into the smart contract Emits an {OnRegisterAndStake} event.."
      },
      "stake(uint256)": {
        "notice": "creates stakes for already registered stakeholders deducts the staking tax from _amount inputted registers the remainder in the stakes of the sender records the previous earnings before updated stakes  Emits an {OnStake} event"
      },
      "unstake(uint256)": {
        "notice": "removes '_amount' stakes for already registered stakeholders deducts the unstaking tax from '_amount' transfers the sum of the remainder, stake rewards, referral rewards, and current eanrings to the sender  deregisters stakeholder if all the stakes are removed Emits an {OnStake} event"
      }
    },
    "version": 1
  }
}